{
  "_format": "hh-sol-artifact-1",
  "contractName": "AddressResolver",
  "sourceName": "contracts/smart-account/utils/AddressResolver.sol",
  "abi": [
    {
      "inputs": [],
      "name": "ECDSA_REGISTRY_MODULE_ADDRESS",
      "outputs": [
        {
          "internalType": "address",
          "name": "",
          "type": "address"
        }
      ],
      "stateMutability": "view",
      "type": "function"
    },
    {
      "inputs": [],
      "name": "SA_V1_FACTORY",
      "outputs": [
        {
          "internalType": "address",
          "name": "",
          "type": "address"
        }
      ],
      "stateMutability": "view",
      "type": "function"
    },
    {
      "inputs": [],
      "name": "SA_V2_FACTORY",
      "outputs": [
        {
          "internalType": "address",
          "name": "",
          "type": "address"
        }
      ],
      "stateMutability": "view",
      "type": "function"
    },
    {
      "inputs": [
        {
          "internalType": "address",
          "name": "_eoa",
          "type": "address"
        },
        {
          "internalType": "uint8",
          "name": "_maxIndex",
          "type": "uint8"
        }
      ],
      "name": "resolveAddresses",
      "outputs": [
        {
          "components": [
            {
              "internalType": "address",
              "name": "accountAddress",
              "type": "address"
            },
            {
              "internalType": "address",
              "name": "factoryAddress",
              "type": "address"
            },
            {
              "internalType": "address",
              "name": "currentImplementation",
              "type": "address"
            },
            {
              "internalType": "string",
              "name": "currentVersion",
              "type": "string"
            },
            {
              "internalType": "string",
              "name": "factoryVersion",
              "type": "string"
            },
            {
              "internalType": "uint256",
              "name": "deploymentIndex",
              "type": "uint256"
            }
          ],
          "internalType": "struct AddressResolver.SmartAccountResult[]",
          "name": "",
          "type": "tuple[]"
        }
      ],
      "stateMutability": "view",
      "type": "function"
    },
    {
      "inputs": [
        {
          "internalType": "address",
          "name": "_eoa",
          "type": "address"
        },
        {
          "internalType": "uint8",
          "name": "_maxIndex",
          "type": "uint8"
        },
        {
          "internalType": "address",
          "name": "_moduleAddress",
          "type": "address"
        },
        {
          "internalType": "bytes",
          "name": "_moduleSetupData",
          "type": "bytes"
        }
      ],
      "name": "resolveAddressesFlexibleForV2",
      "outputs": [
        {
          "components": [
            {
              "internalType": "address",
              "name": "accountAddress",
              "type": "address"
            },
            {
              "internalType": "address",
              "name": "factoryAddress",
              "type": "address"
            },
            {
              "internalType": "address",
              "name": "currentImplementation",
              "type": "address"
            },
            {
              "internalType": "string",
              "name": "currentVersion",
              "type": "string"
            },
            {
              "internalType": "string",
              "name": "factoryVersion",
              "type": "string"
            },
            {
              "internalType": "uint256",
              "name": "deploymentIndex",
              "type": "uint256"
            }
          ],
          "internalType": "struct AddressResolver.SmartAccountResult[]",
          "name": "",
          "type": "tuple[]"
        }
      ],
      "stateMutability": "view",
      "type": "function"
    }
  ],
  "bytecode": "0x6080806040523461001657610d55908161001c8239f35b600080fdfe608080604052600436101561001357600080fd5b60003560e01c90816317adb487146109915750806326bbd86c14610563578063315f3c03146100b3578063bfc5bb62146100875763c35e6aea1461005657600080fd5b3461008257600036600319011261008257602060405170f9ee1842bb72f6bbdd75e6d3d4e3e9594c8152f35b600080fd5b34610082576000366003190112610082576020604051701c5b32f37f5bea87bdd5374eb2ac54ea8e8152f35b34610082576080366003190112610082576100cc6109bb565b6100d46109d1565b90604435916001600160a01b0383168303610082576064359067ffffffffffffffff8211610082573660238301121561008257816004013561011581610b51565b926101236040519485610b2f565b81845236602483830101116100825781600092602460209301838701378401015261015860ff61015283610b6d565b16610bb0565b9360009360005b60ff841681106101c057868661017481610bb0565b9160005b828110610191576040518061018d8682610a29565b0390f35b8061019f6101bb9284610cd7565b516101aa8287610cd7565b526101b58186610cd7565b50610c29565b610178565b604051631acd17f560e31b81526001600160a01b03831660048201526024810182905260208160448170f9ee1842bb72f6bbdd75e6d3d4e3e9594c5afa9081156103b957600091610544575b506001600160a01b03811615158061053a575b61041f575b50604051632e7a1a8360e01b81526001600160a01b03841660048201526060602482015260208180610259606482018a610a04565b856044830152038170a56aaca3e9a4c479ea6b6cd0dbcb6634f55afa9081156103b957600091610400575b506001600160a01b0381161515806103f6575b6102af575b506102a860ff91610c29565b905061015f565b90956040519063557887a160e11b82526020826004816001600160a01b0387165afa9182156103b9576000926103c5575b506040516001621794a360e21b03198152906000826004816001600160a01b0388165afa9384156103b95760ff946102a8946103839460009261038b575b506001600160a01b0390816040519461033686610ae1565b16845270a56aaca3e9a4c479ea6b6cd0dbcb6634f560208501521660408301526060820152610363610d01565b60808201528960a0820152610378828c610cd7565b526101b5818b610cd7565b96915061029c565b6001600160a01b039192506103b2903d806000833e6103aa8183610b2f565b810190610c57565b919061031e565b6040513d6000823e3d90fd5b6103e891925060203d6020116103ef575b6103e08183610b2f565b810190610c38565b90896102e0565b503d6103d6565b50803b1515610297565b610419915060203d6020116103ef576103e08183610b2f565b88610284565b60405163557887a160e11b81529196906020836004816001600160a01b0385165afa9283156103b957600093610519575b506040516001621794a360e21b03198152926000846004816001600160a01b0386165afa9081156103b9576104ec946000926104f3575b506001600160a01b0390816040519461049f86610ae1565b16845270f9ee1842bb72f6bbdd75e6d3d4e3e9594c602085015216604083015260608201526104cc610cb9565b60808201528760a08201526104e1828a610cd7565b526101b58189610cd7565b9487610224565b6001600160a01b03919250610512903d806000833e6103aa8183610b2f565b9190610487565b61053391935060203d6020116103ef576103e08183610b2f565b9189610450565b50803b151561021f565b61055d915060203d6020116103ef576103e08183610b2f565b8861020c565b346100825760403660031901126100825761057c6109bb565b6105846109d1565b61059260ff61015283610b6d565b9160009160005b60ff821681106105db575050506105af81610bb0565b9160005b8281106105c8576040518061018d8682610a29565b8061019f6105d69284610cd7565b6105b3565b604051631acd17f560e31b81526001600160a01b03841660048201526024810182905270f9ee1842bb72f6bbdd75e6d3d4e3e9594c90602081604481855afa9081156103b957600091610972575b506001600160a01b038116908115159081610967575b50610872575b505060405162bb78ef60e61b602082015260246001600160a01b03851681830152808252606082019082821067ffffffffffffffff83111761085e57506040819052632e7a1a8360e01b8152701c5b32f37f5bea87bdd5374eb2ac54ea8e6064830152606060848301526020816106bf60c4850185610a04565b8560a486015284605f199103018170a56aaca3e9a4c479ea6b6cd0dbcb6634f55afa9182156103b957600092610829575b50506001600160a01b03811615158061081f575b61071c575b5061071560ff91610c29565b9050610599565b90936040519063557887a160e11b82526020826004816001600160a01b0387165afa9182156103b9576000926107fe575b506040516001621794a360e21b03198152906000826004816001600160a01b0388165afa9384156103b95760ff94610715946107d0946000926107d8575b506001600160a01b039081604051946107a386610ae1565b16845270a56aaca3e9a4c479ea6b6cd0dbcb6634f5602085015216604083015260608201526104cc610d01565b949150610709565b6001600160a01b039192506107f7903d806000833e6103aa8183610b2f565b919061078b565b61081891925060203d6020116103ef576103e08183610b2f565b908761074d565b50803b1515610704565b61084f92506060906020903d602011610856575b6108478285610b2f565b010190610c38565b86806106f0565b3d915061083d565b634e487b7160e01b60009081526041600452fd5b60405163557887a160e11b8152929591602084600481855afa9384156103b957600094610946575b506040516001621794a360e21b0319815293600085600481865afa9081156103b95761091a95600092610922575b506001600160a01b039192604051946108e086610ae1565b8552602085015216604083015260608201526108fa610cb9565b60808201528560a082015261090f8288610cd7565b526101b58187610cd7565b928580610645565b6001600160a01b039250610940903d806000833e6103aa8183610b2f565b916108c8565b61096091945060203d6020116103ef576103e08183610b2f565b928861089a565b90503b15158861063f565b61098b915060203d6020116103ef576103e08183610b2f565b87610629565b34610082576000366003190112610082578070a56aaca3e9a4c479ea6b6cd0dbcb6634f560209252f35b600435906001600160a01b038216820361008257565b6024359060ff8216820361008257565b60005b8381106109f45750506000910152565b81810151838201526020016109e4565b90602091610a1d815180928185528580860191016109e1565b601f01601f1916010190565b602080820190808352835180925260409283810182858560051b8401019601946000925b858410610a5e575050505050505090565b909192939495968580600192603f198582030187528a51906001600160a01b0380835116825280848401511684830152878301511687820152610ac6610ab36060808501519060c08091860152840190610a04565b6080808501519084830390850152610a04565b9160a080910151910152990194019401929594939190610a4d565b60c0810190811067ffffffffffffffff821117610afd57604052565b634e487b7160e01b600052604160045260246000fd5b6040810190811067ffffffffffffffff821117610afd57604052565b90601f8019910116810190811067ffffffffffffffff821117610afd57604052565b67ffffffffffffffff8111610afd57601f01601f191660200190565b60011b906101fe60fe831692168203610b8257565b634e487b7160e01b600052601160045260246000fd5b67ffffffffffffffff8111610afd5760051b60200190565b90610bba82610b98565b604090610bc982519182610b2f565b8381528093610bda601f1991610b98565b019160005b838110610bec5750505050565b6020908251610bfa81610ae1565b6000815282600081830152600085830152606080808401526080830152600060a0830152828601015201610bdf565b6000198114610b825760010190565b9081602091031261008257516001600160a01b03811681036100825790565b6020818303126100825780519067ffffffffffffffff8211610082570181601f82011215610082578051610c8a81610b51565b92610c986040519485610b2f565b8184526020828401011161008257610cb691602080850191016109e1565b90565b60405190610cc682610b13565b6002825261763160f01b6020830152565b8051821015610ceb5760209160051b010190565b634e487b7160e01b600052603260045260246000fd5b60405190610d0e82610b13565b60028252613b1960f11b602083015256fea26469706673582212202e74d4ac8d69f6237e2db0a7c441e442c914cbb8dde18a8d65d69a9d041ea03164736f6c63430008110033",
  "linkReferences": {},
  "deployedLinkReferences": {}
}