{
  "_format": "hh-sol-artifact-1",
  "contractName": "EcdsaOwnershipRegistryModule",
  "sourceName": "contracts/smart-contract-wallet/modules/EcdsaOwnershipRegistryModule.sol",
  "abi": [
    {
      "inputs": [
        {
          "internalType": "address",
          "name": "smartAccount",
          "type": "address"
        }
      ],
      "name": "AlreadyInitedForSmartAccount",
      "type": "error"
    },
    {
      "inputs": [
        {
          "internalType": "address",
          "name": "smartAccount",
          "type": "address"
        }
      ],
      "name": "NoOwnerRegisteredForSmartAccount",
      "type": "error"
    },
    {
      "inputs": [
        {
          "internalType": "address",
          "name": "account",
          "type": "address"
        }
      ],
      "name": "NotEOA",
      "type": "error"
    },
    {
      "inputs": [],
      "name": "WrongSignatureLength",
      "type": "error"
    },
    {
      "inputs": [],
      "name": "NAME",
      "outputs": [
        {
          "internalType": "string",
          "name": "",
          "type": "string"
        }
      ],
      "stateMutability": "view",
      "type": "function"
    },
    {
      "inputs": [],
      "name": "VERSION",
      "outputs": [
        {
          "internalType": "string",
          "name": "",
          "type": "string"
        }
      ],
      "stateMutability": "view",
      "type": "function"
    },
    {
      "inputs": [
        {
          "internalType": "address",
          "name": "owner",
          "type": "address"
        }
      ],
      "name": "initForSmartAccount",
      "outputs": [
        {
          "internalType": "address",
          "name": "",
          "type": "address"
        }
      ],
      "stateMutability": "nonpayable",
      "type": "function"
    },
    {
      "inputs": [
        {
          "internalType": "bytes32",
          "name": "ethSignedDataHash",
          "type": "bytes32"
        },
        {
          "internalType": "bytes",
          "name": "moduleSignature",
          "type": "bytes"
        }
      ],
      "name": "isValidSignature",
      "outputs": [
        {
          "internalType": "bytes4",
          "name": "",
          "type": "bytes4"
        }
      ],
      "stateMutability": "view",
      "type": "function"
    },
    {
      "inputs": [
        {
          "internalType": "bytes32",
          "name": "ethSignedDataHash",
          "type": "bytes32"
        },
        {
          "internalType": "bytes",
          "name": "moduleSignature",
          "type": "bytes"
        },
        {
          "internalType": "address",
          "name": "smartAccount",
          "type": "address"
        }
      ],
      "name": "isValidSignatureForAddress",
      "outputs": [
        {
          "internalType": "bytes4",
          "name": "",
          "type": "bytes4"
        }
      ],
      "stateMutability": "view",
      "type": "function"
    },
    {
      "inputs": [
        {
          "internalType": "address",
          "name": "owner",
          "type": "address"
        }
      ],
      "name": "setOwner",
      "outputs": [],
      "stateMutability": "nonpayable",
      "type": "function"
    },
    {
      "inputs": [
        {
          "internalType": "address",
          "name": "",
          "type": "address"
        }
      ],
      "name": "smartAccountOwners",
      "outputs": [
        {
          "internalType": "address",
          "name": "",
          "type": "address"
        }
      ],
      "stateMutability": "view",
      "type": "function"
    },
    {
      "inputs": [
        {
          "components": [
            {
              "internalType": "address",
              "name": "sender",
              "type": "address"
            },
            {
              "internalType": "uint256",
              "name": "nonce",
              "type": "uint256"
            },
            {
              "internalType": "bytes",
              "name": "initCode",
              "type": "bytes"
            },
            {
              "internalType": "bytes",
              "name": "callData",
              "type": "bytes"
            },
            {
              "internalType": "uint256",
              "name": "callGasLimit",
              "type": "uint256"
            },
            {
              "internalType": "uint256",
              "name": "verificationGasLimit",
              "type": "uint256"
            },
            {
              "internalType": "uint256",
              "name": "preVerificationGas",
              "type": "uint256"
            },
            {
              "internalType": "uint256",
              "name": "maxFeePerGas",
              "type": "uint256"
            },
            {
              "internalType": "uint256",
              "name": "maxPriorityFeePerGas",
              "type": "uint256"
            },
            {
              "internalType": "bytes",
              "name": "paymasterAndData",
              "type": "bytes"
            },
            {
              "internalType": "bytes",
              "name": "signature",
              "type": "bytes"
            }
          ],
          "internalType": "struct UserOperation",
          "name": "userOp",
          "type": "tuple"
        },
        {
          "internalType": "bytes32",
          "name": "userOpHash",
          "type": "bytes32"
        }
      ],
      "name": "validateUserOp",
      "outputs": [
        {
          "internalType": "uint256",
          "name": "",
          "type": "uint256"
        }
      ],
      "stateMutability": "view",
      "type": "function"
    }
  ],
  "bytecode": "0x608060405234801561001057600080fd5b50610b03806100206000396000f3fe608060405234801561001057600080fd5b50600436106100885760003560e01c8063a3f4df7e1161005b578063a3f4df7e1461013f578063f44c339d14610188578063ffa1ad741461019b578063fff35b72146101d757600080fd5b806313af40351461008d5780631626ba7e146100a25780632e5b63a6146100eb5780632ede3bc01461012c575b600080fd5b6100a061009b3660046107fc565b6101f8565b005b6100b56100b03660046108bc565b610264565b6040517fffffffff0000000000000000000000000000000000000000000000000000000090911681526020015b60405180910390f35b6101146100f93660046107fc565b6000602081905290815260409020546001600160a01b031681565b6040516001600160a01b0390911681526020016100e2565b61011461013a3660046107fc565b61027a565b61017b6040518060400160405280601f81526020017f4543445341204f776e657273686970205265676973747279204d6f64756c650081525081565b6040516100e29190610903565b6100b5610196366004610951565b61031f565b61017b6040518060400160405280600581526020017f302e312e3000000000000000000000000000000000000000000000000000000081525081565b6101ea6101e53660046109ac565b610369565b6040519081526020016100e2565b803b15610228576040516377817ac360e01b81526001600160a01b03821660048201526024015b60405180910390fd5b336000908152602081905260409020805473ffffffffffffffffffffffffffffffffffffffff19166001600160a01b0392909216919091179055565b600061027183833361031f565b90505b92915050565b6000813b156102a7576040516377817ac360e01b81526001600160a01b038316600482015260240161021f565b336000908152602081905260409020546001600160a01b0316156102e057604051632c4dfb7d60e21b815233600482015260240161021f565b50336000908152602081905260409020805473ffffffffffffffffffffffffffffffffffffffff19166001600160a01b03929092169190911790553090565b600061032c8484846103f9565b1561033f5750630b135d3f60e11b610362565b507fffffffff000000000000000000000000000000000000000000000000000000005b9392505050565b60008061037a6101408501856109f7565b8101906103879190610a3e565b50905060006103e3846040517f19457468657265756d205369676e6564204d6573736167653a0a3332000000006020820152603c8101829052600090605c01604051602081830303815290604052805190602001209050919050565b90506103f085828461053d565b95945050505050565b6001600160a01b038082166000908152602081905260408120549091168061043f57604051633d3fff5360e21b81526001600160a01b038416600482015260240161021f565b60418451101561046257604051632bb1a9c560e11b815260040160405180910390fd5b60208401516040850151604186015160ff169190601e8311156105145760006104f061048f600486610a90565b84846104e88d6040517f19457468657265756d205369676e6564204d6573736167653a0a3332000000006020820152603c8101829052600090605c01604051602081830303815290604052805190602001209050919050565b92919061056d565b509050806001600160a01b0316856001600160a01b03161495505050505050610362565b61051e8888610631565b6001600160a01b0316846001600160a01b031614945050505050610362565b6000610556838361055160208801886107fc565b6103f9565b1561056357506000610362565b5060019392505050565b6000807f7fffffffffffffffffffffffffffffff5d576e7357a4501ddfe92f46681b20a08311156105a45750600090506003610628565b6040805160008082526020820180845289905260ff881692820192909252606081018690526080810185905260019060a0016020604051602081039080840390855afa1580156105f8573d6000803e3d6000fd5b5050604051601f1901519150506001600160a01b03811661062157600060019250925050610628565b9150600090505b94509492505050565b60008060006106408585610655565b9150915061064d8161069a565b509392505050565b600080825160410361068b5760208301516040840151606085015160001a61067f8782858561056d565b94509450505050610693565b506000905060025b9250929050565b60008160048111156106ae576106ae610ab7565b036106b65750565b60018160048111156106ca576106ca610ab7565b036107175760405162461bcd60e51b815260206004820152601860248201527f45434453413a20696e76616c6964207369676e61747572650000000000000000604482015260640161021f565b600281600481111561072b5761072b610ab7565b036107785760405162461bcd60e51b815260206004820152601f60248201527f45434453413a20696e76616c6964207369676e6174757265206c656e67746800604482015260640161021f565b600381600481111561078c5761078c610ab7565b036107e45760405162461bcd60e51b815260206004820152602260248201527f45434453413a20696e76616c6964207369676e6174757265202773272076616c604482015261756560f01b606482015260840161021f565b50565b6001600160a01b03811681146107e457600080fd5b60006020828403121561080e57600080fd5b8135610362816107e7565b634e487b7160e01b600052604160045260246000fd5b600082601f83011261084057600080fd5b813567ffffffffffffffff8082111561085b5761085b610819565b604051601f8301601f19908116603f0116810190828211818310171561088357610883610819565b8160405283815286602085880101111561089c57600080fd5b836020870160208301376000602085830101528094505050505092915050565b600080604083850312156108cf57600080fd5b82359150602083013567ffffffffffffffff8111156108ed57600080fd5b6108f98582860161082f565b9150509250929050565b600060208083528351808285015260005b8181101561093057858101830151858201604001528201610914565b506000604082860101526040601f19601f8301168501019250505092915050565b60008060006060848603121561096657600080fd5b83359250602084013567ffffffffffffffff81111561098457600080fd5b6109908682870161082f565b92505060408401356109a1816107e7565b809150509250925092565b600080604083850312156109bf57600080fd5b823567ffffffffffffffff8111156109d657600080fd5b830161016081860312156109e957600080fd5b946020939093013593505050565b6000808335601e19843603018112610a0e57600080fd5b83018035915067ffffffffffffffff821115610a2957600080fd5b60200191503681900382131561069357600080fd5b60008060408385031215610a5157600080fd5b823567ffffffffffffffff811115610a6857600080fd5b610a748582860161082f565b9250506020830135610a85816107e7565b809150509250929050565b60ff828116828216039081111561027457634e487b7160e01b600052601160045260246000fd5b634e487b7160e01b600052602160045260246000fdfea2646970667358221220ecdbbfe569b13a3a1443947af9fb3b4ed60afa9773e2345067495afad9b16ba664736f6c63430008110033",
  "linkReferences": {},
  "deployedLinkReferences": {}
}