{
  "_format": "hh-sol-artifact-1",
  "contractName": "EcdsaOwnershipRegistryModule",
  "sourceName": "contracts/smart-contract-wallet/modules/EcdsaOwnershipRegistryModule.sol",
  "abi": [
    {
      "inputs": [
        {
          "internalType": "address",
          "name": "smartAccount",
          "type": "address"
        }
      ],
      "name": "AlreadyInitedForSmartAccount",
      "type": "error"
    },
    {
      "inputs": [
        {
          "internalType": "address",
          "name": "smartAccount",
          "type": "address"
        }
      ],
      "name": "NoOwnerRegisteredForSmartAccount",
      "type": "error"
    },
    {
      "inputs": [
        {
          "internalType": "address",
          "name": "account",
          "type": "address"
        }
      ],
      "name": "NotEOA",
      "type": "error"
    },
    {
      "inputs": [],
      "name": "WrongSignatureLength",
      "type": "error"
    },
    {
      "inputs": [],
      "name": "NAME",
      "outputs": [
        {
          "internalType": "string",
          "name": "",
          "type": "string"
        }
      ],
      "stateMutability": "view",
      "type": "function"
    },
    {
      "inputs": [],
      "name": "VERSION",
      "outputs": [
        {
          "internalType": "string",
          "name": "",
          "type": "string"
        }
      ],
      "stateMutability": "view",
      "type": "function"
    },
    {
      "inputs": [
        {
          "internalType": "address",
          "name": "owner",
          "type": "address"
        }
      ],
      "name": "initForSmartAccount",
      "outputs": [
        {
          "internalType": "address",
          "name": "",
          "type": "address"
        }
      ],
      "stateMutability": "nonpayable",
      "type": "function"
    },
    {
      "inputs": [
        {
          "internalType": "bytes32",
          "name": "dataHash",
          "type": "bytes32"
        },
        {
          "internalType": "bytes",
          "name": "moduleSignature",
          "type": "bytes"
        }
      ],
      "name": "isValidSignature",
      "outputs": [
        {
          "internalType": "bytes4",
          "name": "",
          "type": "bytes4"
        }
      ],
      "stateMutability": "view",
      "type": "function"
    },
    {
      "inputs": [
        {
          "internalType": "bytes32",
          "name": "dataHash",
          "type": "bytes32"
        },
        {
          "internalType": "bytes",
          "name": "moduleSignature",
          "type": "bytes"
        },
        {
          "internalType": "address",
          "name": "smartAccount",
          "type": "address"
        }
      ],
      "name": "isValidSignatureForAddress",
      "outputs": [
        {
          "internalType": "bytes4",
          "name": "",
          "type": "bytes4"
        }
      ],
      "stateMutability": "view",
      "type": "function"
    },
    {
      "inputs": [
        {
          "internalType": "address",
          "name": "owner",
          "type": "address"
        }
      ],
      "name": "setOwner",
      "outputs": [],
      "stateMutability": "nonpayable",
      "type": "function"
    },
    {
      "inputs": [
        {
          "internalType": "address",
          "name": "",
          "type": "address"
        }
      ],
      "name": "smartAccountOwners",
      "outputs": [
        {
          "internalType": "address",
          "name": "",
          "type": "address"
        }
      ],
      "stateMutability": "view",
      "type": "function"
    },
    {
      "inputs": [
        {
          "components": [
            {
              "internalType": "address",
              "name": "sender",
              "type": "address"
            },
            {
              "internalType": "uint256",
              "name": "nonce",
              "type": "uint256"
            },
            {
              "internalType": "bytes",
              "name": "initCode",
              "type": "bytes"
            },
            {
              "internalType": "bytes",
              "name": "callData",
              "type": "bytes"
            },
            {
              "internalType": "uint256",
              "name": "callGasLimit",
              "type": "uint256"
            },
            {
              "internalType": "uint256",
              "name": "verificationGasLimit",
              "type": "uint256"
            },
            {
              "internalType": "uint256",
              "name": "preVerificationGas",
              "type": "uint256"
            },
            {
              "internalType": "uint256",
              "name": "maxFeePerGas",
              "type": "uint256"
            },
            {
              "internalType": "uint256",
              "name": "maxPriorityFeePerGas",
              "type": "uint256"
            },
            {
              "internalType": "bytes",
              "name": "paymasterAndData",
              "type": "bytes"
            },
            {
              "internalType": "bytes",
              "name": "signature",
              "type": "bytes"
            }
          ],
          "internalType": "struct UserOperation",
          "name": "userOp",
          "type": "tuple"
        },
        {
          "internalType": "bytes32",
          "name": "userOpHash",
          "type": "bytes32"
        }
      ],
      "name": "validateUserOp",
      "outputs": [
        {
          "internalType": "uint256",
          "name": "",
          "type": "uint256"
        }
      ],
      "stateMutability": "view",
      "type": "function"
    }
  ],
  "bytecode": "0x608060405234801561001057600080fd5b50610a08806100206000396000f3fe608060405234801561001057600080fd5b50600436106100885760003560e01c8063a3f4df7e1161005b578063a3f4df7e1461013f578063f44c339d14610188578063ffa1ad741461019b578063fff35b72146101d757600080fd5b806313af40351461008d5780631626ba7e146100a25780632e5b63a6146100eb5780632ede3bc01461012c575b600080fd5b6100a061009b366004610728565b6101f8565b005b6100b56100b03660046107e8565b610264565b6040517fffffffff0000000000000000000000000000000000000000000000000000000090911681526020015b60405180910390f35b6101146100f9366004610728565b6000602081905290815260409020546001600160a01b031681565b6040516001600160a01b0390911681526020016100e2565b61011461013a366004610728565b61027a565b61017b6040518060400160405280601f81526020017f4543445341204f776e657273686970205265676973747279204d6f64756c650081525081565b6040516100e2919061082f565b6100b561019636600461087d565b61031f565b61017b6040518060400160405280600581526020017f302e312e3000000000000000000000000000000000000000000000000000000081525081565b6101ea6101e53660046108d8565b610369565b6040519081526020016100e2565b803b15610228576040516377817ac360e01b81526001600160a01b03821660048201526024015b60405180910390fd5b336000908152602081905260409020805473ffffffffffffffffffffffffffffffffffffffff19166001600160a01b0392909216919091179055565b600061027183833361031f565b90505b92915050565b6000813b156102a7576040516377817ac360e01b81526001600160a01b038316600482015260240161021f565b336000908152602081905260409020546001600160a01b0316156102e057604051632c4dfb7d60e21b815233600482015260240161021f565b50336000908152602081905260409020805473ffffffffffffffffffffffffffffffffffffffff19166001600160a01b03929092169190911790553090565b600061032c848484610410565b1561033f5750630b135d3f60e11b610362565b507fffffffff000000000000000000000000000000000000000000000000000000005b9392505050565b60008061037a610140850185610923565b810190610387919061096a565b5090506103f76103e4846040517f19457468657265756d205369676e6564204d6573736167653a0a3332000000006020820152603c8101829052600090605c01604051602081830303815290604052805190602001209050919050565b826103f26020880188610728565b610410565b15610406576000915050610274565b5060019392505050565b6001600160a01b038082166000908152602081905260408120549091168061045657604051633d3fff5360e21b81526001600160a01b038416600482015260240161021f565b60418451101561047957604051632bb1a9c560e11b815260040160405180910390fd5b6104838585610499565b6001600160a01b03918216911614949350505050565b60008060006104a885856104bd565b915091506104b581610502565b509392505050565b60008082516041036104f35760208301516040840151606085015160001a6104e78782858561064f565b945094505050506104fb565b506000905060025b9250929050565b6000816004811115610516576105166109bc565b0361051e5750565b6001816004811115610532576105326109bc565b0361057f5760405162461bcd60e51b815260206004820152601860248201527f45434453413a20696e76616c6964207369676e61747572650000000000000000604482015260640161021f565b6002816004811115610593576105936109bc565b036105e05760405162461bcd60e51b815260206004820152601f60248201527f45434453413a20696e76616c6964207369676e6174757265206c656e67746800604482015260640161021f565b60038160048111156105f4576105f46109bc565b0361064c5760405162461bcd60e51b815260206004820152602260248201527f45434453413a20696e76616c6964207369676e6174757265202773272076616c604482015261756560f01b606482015260840161021f565b50565b6000807f7fffffffffffffffffffffffffffffff5d576e7357a4501ddfe92f46681b20a0831115610686575060009050600361070a565b6040805160008082526020820180845289905260ff881692820192909252606081018690526080810185905260019060a0016020604051602081039080840390855afa1580156106da573d6000803e3d6000fd5b5050604051601f1901519150506001600160a01b0381166107035760006001925092505061070a565b9150600090505b94509492505050565b6001600160a01b038116811461064c57600080fd5b60006020828403121561073a57600080fd5b813561036281610713565b634e487b7160e01b600052604160045260246000fd5b600082601f83011261076c57600080fd5b813567ffffffffffffffff8082111561078757610787610745565b604051601f8301601f19908116603f011681019082821181831017156107af576107af610745565b816040528381528660208588010111156107c857600080fd5b836020870160208301376000602085830101528094505050505092915050565b600080604083850312156107fb57600080fd5b82359150602083013567ffffffffffffffff81111561081957600080fd5b6108258582860161075b565b9150509250929050565b600060208083528351808285015260005b8181101561085c57858101830151858201604001528201610840565b506000604082860101526040601f19601f8301168501019250505092915050565b60008060006060848603121561089257600080fd5b83359250602084013567ffffffffffffffff8111156108b057600080fd5b6108bc8682870161075b565b92505060408401356108cd81610713565b809150509250925092565b600080604083850312156108eb57600080fd5b823567ffffffffffffffff81111561090257600080fd5b8301610160818603121561091557600080fd5b946020939093013593505050565b6000808335601e1984360301811261093a57600080fd5b83018035915067ffffffffffffffff82111561095557600080fd5b6020019150368190038213156104fb57600080fd5b6000806040838503121561097d57600080fd5b823567ffffffffffffffff81111561099457600080fd5b6109a08582860161075b565b92505060208301356109b181610713565b809150509250929050565b634e487b7160e01b600052602160045260246000fdfea2646970667358221220e5459a5591cae3b2a1c37f476563f16197a0d78f52ebfb81eabacbfb448efbf864736f6c63430008110033",
  "linkReferences": {},
  "deployedLinkReferences": {}
}