{
  "_format": "hh-sol-artifact-1",
  "contractName": "SmartAccount",
  "sourceName": "contracts/smart-contract-wallet/SmartAccount.sol",
  "abi": [
    {
      "inputs": [
        {
          "internalType": "contract IEntryPoint",
          "name": "anEntryPoint",
          "type": "address"
        }
      ],
      "stateMutability": "nonpayable",
      "type": "constructor"
    },
    {
      "inputs": [],
      "name": "AlreadyInitialized",
      "type": "error"
    },
    {
      "inputs": [],
      "name": "BaseImplementationCannotBeZero",
      "type": "error"
    },
    {
      "inputs": [
        {
          "internalType": "address",
          "name": "caller",
          "type": "address"
        }
      ],
      "name": "CallerIsNotAnEntryPoint",
      "type": "error"
    },
    {
      "inputs": [
        {
          "internalType": "address",
          "name": "caller",
          "type": "address"
        }
      ],
      "name": "CallerIsNotEntryPoint",
      "type": "error"
    },
    {
      "inputs": [
        {
          "internalType": "address",
          "name": "caller",
          "type": "address"
        }
      ],
      "name": "CallerIsNotEntryPointOrOwner",
      "type": "error"
    },
    {
      "inputs": [
        {
          "internalType": "address",
          "name": "caller",
          "type": "address"
        }
      ],
      "name": "CallerIsNotEntryPointOrSelf",
      "type": "error"
    },
    {
      "inputs": [
        {
          "internalType": "address",
          "name": "caller",
          "type": "address"
        }
      ],
      "name": "CallerIsNotOwner",
      "type": "error"
    },
    {
      "inputs": [
        {
          "internalType": "address",
          "name": "caller",
          "type": "address"
        }
      ],
      "name": "CallerIsNotSelf",
      "type": "error"
    },
    {
      "inputs": [],
      "name": "DelegateCallsOnly",
      "type": "error"
    },
    {
      "inputs": [],
      "name": "EntryPointCannotBeZero",
      "type": "error"
    },
    {
      "inputs": [],
      "name": "HandlerCannotBeZero",
      "type": "error"
    },
    {
      "inputs": [
        {
          "internalType": "address",
          "name": "implementationAddress",
          "type": "address"
        }
      ],
      "name": "InvalidImplementation",
      "type": "error"
    },
    {
      "inputs": [
        {
          "internalType": "address",
          "name": "caller",
          "type": "address"
        }
      ],
      "name": "MixedAuthFail",
      "type": "error"
    },
    {
      "inputs": [
        {
          "internalType": "address",
          "name": "module",
          "type": "address"
        }
      ],
      "name": "ModuleAlreadyEnabled",
      "type": "error"
    },
    {
      "inputs": [
        {
          "internalType": "address",
          "name": "expectedModule",
          "type": "address"
        },
        {
          "internalType": "address",
          "name": "returnedModule",
          "type": "address"
        },
        {
          "internalType": "address",
          "name": "prevModule",
          "type": "address"
        }
      ],
      "name": "ModuleAndPrevModuleMismatch",
      "type": "error"
    },
    {
      "inputs": [
        {
          "internalType": "address",
          "name": "module",
          "type": "address"
        }
      ],
      "name": "ModuleCannotBeZeroOrSentinel",
      "type": "error"
    },
    {
      "inputs": [
        {
          "internalType": "address",
          "name": "module",
          "type": "address"
        }
      ],
      "name": "ModuleNotEnabled",
      "type": "error"
    },
    {
      "inputs": [],
      "name": "ModulesAlreadyInitialized",
      "type": "error"
    },
    {
      "inputs": [],
      "name": "ModulesSetupExecutionFailed",
      "type": "error"
    },
    {
      "inputs": [],
      "name": "OwnerCanNotBeSelf",
      "type": "error"
    },
    {
      "inputs": [],
      "name": "OwnerCannotBeZero",
      "type": "error"
    },
    {
      "inputs": [],
      "name": "OwnerProvidedIsSame",
      "type": "error"
    },
    {
      "inputs": [],
      "name": "TransferToZeroAddressAttempt",
      "type": "error"
    },
    {
      "inputs": [
        {
          "internalType": "uint256",
          "name": "destLength",
          "type": "uint256"
        },
        {
          "internalType": "uint256",
          "name": "valueLength",
          "type": "uint256"
        },
        {
          "internalType": "uint256",
          "name": "funcLength",
          "type": "uint256"
        },
        {
          "internalType": "uint256",
          "name": "operationLength",
          "type": "uint256"
        }
      ],
      "name": "WrongBatchProvided",
      "type": "error"
    },
    {
      "inputs": [
        {
          "internalType": "bytes",
          "name": "contractSignature",
          "type": "bytes"
        }
      ],
      "name": "WrongContractSignature",
      "type": "error"
    },
    {
      "inputs": [
        {
          "internalType": "uint256",
          "name": "uintS",
          "type": "uint256"
        },
        {
          "internalType": "uint256",
          "name": "contractSignatureLength",
          "type": "uint256"
        },
        {
          "internalType": "uint256",
          "name": "signatureLength",
          "type": "uint256"
        }
      ],
      "name": "WrongContractSignatureFormat",
      "type": "error"
    },
    {
      "inputs": [
        {
          "internalType": "address",
          "name": "moduleAddressProvided",
          "type": "address"
        }
      ],
      "name": "WrongValidationModule",
      "type": "error"
    },
    {
      "anonymous": false,
      "inputs": [
        {
          "indexed": true,
          "internalType": "address",
          "name": "previousHandler",
          "type": "address"
        },
        {
          "indexed": true,
          "internalType": "address",
          "name": "handler",
          "type": "address"
        }
      ],
      "name": "ChangedFallbackHandler",
      "type": "event"
    },
    {
      "anonymous": false,
      "inputs": [
        {
          "indexed": false,
          "internalType": "address",
          "name": "module",
          "type": "address"
        }
      ],
      "name": "DisabledModule",
      "type": "event"
    },
    {
      "anonymous": false,
      "inputs": [
        {
          "indexed": false,
          "internalType": "address",
          "name": "module",
          "type": "address"
        }
      ],
      "name": "EnabledModule",
      "type": "event"
    },
    {
      "anonymous": false,
      "inputs": [
        {
          "indexed": true,
          "internalType": "address",
          "name": "to",
          "type": "address"
        },
        {
          "indexed": true,
          "internalType": "uint256",
          "name": "value",
          "type": "uint256"
        },
        {
          "indexed": true,
          "internalType": "bytes",
          "name": "data",
          "type": "bytes"
        },
        {
          "indexed": false,
          "internalType": "enum Enum.Operation",
          "name": "operation",
          "type": "uint8"
        },
        {
          "indexed": false,
          "internalType": "uint256",
          "name": "txGas",
          "type": "uint256"
        }
      ],
      "name": "ExecutionFailure",
      "type": "event"
    },
    {
      "anonymous": false,
      "inputs": [
        {
          "indexed": true,
          "internalType": "address",
          "name": "module",
          "type": "address"
        }
      ],
      "name": "ExecutionFromModuleFailure",
      "type": "event"
    },
    {
      "anonymous": false,
      "inputs": [
        {
          "indexed": true,
          "internalType": "address",
          "name": "module",
          "type": "address"
        }
      ],
      "name": "ExecutionFromModuleSuccess",
      "type": "event"
    },
    {
      "anonymous": false,
      "inputs": [
        {
          "indexed": true,
          "internalType": "address",
          "name": "to",
          "type": "address"
        },
        {
          "indexed": true,
          "internalType": "uint256",
          "name": "value",
          "type": "uint256"
        },
        {
          "indexed": true,
          "internalType": "bytes",
          "name": "data",
          "type": "bytes"
        },
        {
          "indexed": false,
          "internalType": "enum Enum.Operation",
          "name": "operation",
          "type": "uint8"
        },
        {
          "indexed": false,
          "internalType": "uint256",
          "name": "txGas",
          "type": "uint256"
        }
      ],
      "name": "ExecutionSuccess",
      "type": "event"
    },
    {
      "anonymous": false,
      "inputs": [
        {
          "indexed": true,
          "internalType": "address",
          "name": "oldImplementation",
          "type": "address"
        },
        {
          "indexed": true,
          "internalType": "address",
          "name": "newImplementation",
          "type": "address"
        }
      ],
      "name": "ImplementationUpdated",
      "type": "event"
    },
    {
      "anonymous": false,
      "inputs": [
        {
          "indexed": false,
          "internalType": "address",
          "name": "module",
          "type": "address"
        },
        {
          "indexed": false,
          "internalType": "address",
          "name": "to",
          "type": "address"
        },
        {
          "indexed": false,
          "internalType": "uint256",
          "name": "value",
          "type": "uint256"
        },
        {
          "indexed": false,
          "internalType": "bytes",
          "name": "data",
          "type": "bytes"
        },
        {
          "indexed": false,
          "internalType": "enum Enum.Operation",
          "name": "operation",
          "type": "uint8"
        }
      ],
      "name": "ModuleTransaction",
      "type": "event"
    },
    {
      "anonymous": false,
      "inputs": [
        {
          "indexed": true,
          "internalType": "address",
          "name": "sender",
          "type": "address"
        },
        {
          "indexed": true,
          "internalType": "uint256",
          "name": "value",
          "type": "uint256"
        }
      ],
      "name": "SmartAccountReceivedNativeToken",
      "type": "event"
    },
    {
      "stateMutability": "nonpayable",
      "type": "fallback"
    },
    {
      "inputs": [],
      "name": "VERSION",
      "outputs": [
        {
          "internalType": "string",
          "name": "",
          "type": "string"
        }
      ],
      "stateMutability": "view",
      "type": "function"
    },
    {
      "inputs": [],
      "name": "addDeposit",
      "outputs": [],
      "stateMutability": "payable",
      "type": "function"
    },
    {
      "inputs": [
        {
          "internalType": "address",
          "name": "prevModule",
          "type": "address"
        },
        {
          "internalType": "address",
          "name": "module",
          "type": "address"
        }
      ],
      "name": "disableModule",
      "outputs": [],
      "stateMutability": "nonpayable",
      "type": "function"
    },
    {
      "inputs": [
        {
          "internalType": "address",
          "name": "module",
          "type": "address"
        }
      ],
      "name": "enableModule",
      "outputs": [],
      "stateMutability": "nonpayable",
      "type": "function"
    },
    {
      "inputs": [],
      "name": "entryPoint",
      "outputs": [
        {
          "internalType": "contract IEntryPoint",
          "name": "",
          "type": "address"
        }
      ],
      "stateMutability": "view",
      "type": "function"
    },
    {
      "inputs": [
        {
          "internalType": "address[]",
          "name": "to",
          "type": "address[]"
        },
        {
          "internalType": "uint256[]",
          "name": "value",
          "type": "uint256[]"
        },
        {
          "internalType": "bytes[]",
          "name": "data",
          "type": "bytes[]"
        },
        {
          "internalType": "enum Enum.Operation[]",
          "name": "operations",
          "type": "uint8[]"
        }
      ],
      "name": "execBatchTransactionFromModule",
      "outputs": [
        {
          "internalType": "bool",
          "name": "success",
          "type": "bool"
        }
      ],
      "stateMutability": "nonpayable",
      "type": "function"
    },
    {
      "inputs": [
        {
          "internalType": "address",
          "name": "to",
          "type": "address"
        },
        {
          "internalType": "uint256",
          "name": "value",
          "type": "uint256"
        },
        {
          "internalType": "bytes",
          "name": "data",
          "type": "bytes"
        },
        {
          "internalType": "enum Enum.Operation",
          "name": "operation",
          "type": "uint8"
        },
        {
          "internalType": "uint256",
          "name": "txGas",
          "type": "uint256"
        }
      ],
      "name": "execTransactionFromModule",
      "outputs": [
        {
          "internalType": "bool",
          "name": "success",
          "type": "bool"
        }
      ],
      "stateMutability": "nonpayable",
      "type": "function"
    },
    {
      "inputs": [
        {
          "internalType": "address",
          "name": "to",
          "type": "address"
        },
        {
          "internalType": "uint256",
          "name": "value",
          "type": "uint256"
        },
        {
          "internalType": "bytes",
          "name": "data",
          "type": "bytes"
        },
        {
          "internalType": "enum Enum.Operation",
          "name": "operation",
          "type": "uint8"
        }
      ],
      "name": "execTransactionFromModule",
      "outputs": [
        {
          "internalType": "bool",
          "name": "",
          "type": "bool"
        }
      ],
      "stateMutability": "nonpayable",
      "type": "function"
    },
    {
      "inputs": [
        {
          "internalType": "address",
          "name": "to",
          "type": "address"
        },
        {
          "internalType": "uint256",
          "name": "value",
          "type": "uint256"
        },
        {
          "internalType": "bytes",
          "name": "data",
          "type": "bytes"
        },
        {
          "internalType": "enum Enum.Operation",
          "name": "operation",
          "type": "uint8"
        }
      ],
      "name": "execTransactionFromModuleReturnData",
      "outputs": [
        {
          "internalType": "bool",
          "name": "success",
          "type": "bool"
        },
        {
          "internalType": "bytes",
          "name": "returnData",
          "type": "bytes"
        }
      ],
      "stateMutability": "nonpayable",
      "type": "function"
    },
    {
      "inputs": [
        {
          "internalType": "address[]",
          "name": "dest",
          "type": "address[]"
        },
        {
          "internalType": "uint256[]",
          "name": "value",
          "type": "uint256[]"
        },
        {
          "internalType": "bytes[]",
          "name": "func",
          "type": "bytes[]"
        }
      ],
      "name": "executeBatchCall",
      "outputs": [],
      "stateMutability": "nonpayable",
      "type": "function"
    },
    {
      "inputs": [
        {
          "internalType": "address[]",
          "name": "dest",
          "type": "address[]"
        },
        {
          "internalType": "uint256[]",
          "name": "value",
          "type": "uint256[]"
        },
        {
          "internalType": "bytes[]",
          "name": "func",
          "type": "bytes[]"
        }
      ],
      "name": "executeBatchCall_4by",
      "outputs": [],
      "stateMutability": "nonpayable",
      "type": "function"
    },
    {
      "inputs": [
        {
          "internalType": "address",
          "name": "dest",
          "type": "address"
        },
        {
          "internalType": "uint256",
          "name": "value",
          "type": "uint256"
        },
        {
          "internalType": "bytes",
          "name": "func",
          "type": "bytes"
        }
      ],
      "name": "executeCall",
      "outputs": [],
      "stateMutability": "nonpayable",
      "type": "function"
    },
    {
      "inputs": [
        {
          "internalType": "address",
          "name": "dest",
          "type": "address"
        },
        {
          "internalType": "uint256",
          "name": "value",
          "type": "uint256"
        },
        {
          "internalType": "bytes",
          "name": "func",
          "type": "bytes"
        }
      ],
      "name": "executeCall_s1m",
      "outputs": [],
      "stateMutability": "nonpayable",
      "type": "function"
    },
    {
      "inputs": [],
      "name": "getDeposit",
      "outputs": [
        {
          "internalType": "uint256",
          "name": "",
          "type": "uint256"
        }
      ],
      "stateMutability": "view",
      "type": "function"
    },
    {
      "inputs": [],
      "name": "getFallbackHandler",
      "outputs": [
        {
          "internalType": "address",
          "name": "_handler",
          "type": "address"
        }
      ],
      "stateMutability": "view",
      "type": "function"
    },
    {
      "inputs": [],
      "name": "getImplementation",
      "outputs": [
        {
          "internalType": "address",
          "name": "_implementation",
          "type": "address"
        }
      ],
      "stateMutability": "view",
      "type": "function"
    },
    {
      "inputs": [
        {
          "internalType": "address",
          "name": "start",
          "type": "address"
        },
        {
          "internalType": "uint256",
          "name": "pageSize",
          "type": "uint256"
        }
      ],
      "name": "getModulesPaginated",
      "outputs": [
        {
          "internalType": "address[]",
          "name": "array",
          "type": "address[]"
        },
        {
          "internalType": "address",
          "name": "next",
          "type": "address"
        }
      ],
      "stateMutability": "view",
      "type": "function"
    },
    {
      "inputs": [
        {
          "internalType": "address",
          "name": "handler",
          "type": "address"
        },
        {
          "internalType": "address",
          "name": "moduleSetupContract",
          "type": "address"
        },
        {
          "internalType": "bytes",
          "name": "moduleSetupData",
          "type": "bytes"
        }
      ],
      "name": "init",
      "outputs": [
        {
          "internalType": "address",
          "name": "",
          "type": "address"
        }
      ],
      "stateMutability": "nonpayable",
      "type": "function"
    },
    {
      "inputs": [
        {
          "internalType": "address",
          "name": "module",
          "type": "address"
        }
      ],
      "name": "isModuleEnabled",
      "outputs": [
        {
          "internalType": "bool",
          "name": "",
          "type": "bool"
        }
      ],
      "stateMutability": "view",
      "type": "function"
    },
    {
      "inputs": [
        {
          "internalType": "bytes32",
          "name": "dataHash",
          "type": "bytes32"
        },
        {
          "internalType": "bytes",
          "name": "signature",
          "type": "bytes"
        }
      ],
      "name": "isValidSignature",
      "outputs": [
        {
          "internalType": "bytes4",
          "name": "",
          "type": "bytes4"
        }
      ],
      "stateMutability": "view",
      "type": "function"
    },
    {
      "inputs": [],
      "name": "nonce",
      "outputs": [
        {
          "internalType": "uint256",
          "name": "",
          "type": "uint256"
        }
      ],
      "stateMutability": "view",
      "type": "function"
    },
    {
      "inputs": [
        {
          "internalType": "uint256",
          "name": "",
          "type": "uint256"
        }
      ],
      "name": "nonces_deprecated",
      "outputs": [
        {
          "internalType": "uint256",
          "name": "",
          "type": "uint256"
        }
      ],
      "stateMutability": "view",
      "type": "function"
    },
    {
      "inputs": [],
      "name": "owner_deprecated",
      "outputs": [
        {
          "internalType": "address",
          "name": "",
          "type": "address"
        }
      ],
      "stateMutability": "view",
      "type": "function"
    },
    {
      "inputs": [
        {
          "internalType": "address",
          "name": "handler",
          "type": "address"
        }
      ],
      "name": "setFallbackHandler",
      "outputs": [],
      "stateMutability": "nonpayable",
      "type": "function"
    },
    {
      "inputs": [
        {
          "internalType": "address",
          "name": "setupContract",
          "type": "address"
        },
        {
          "internalType": "bytes",
          "name": "setupData",
          "type": "bytes"
        }
      ],
      "name": "setupAndEnableModule",
      "outputs": [
        {
          "internalType": "address",
          "name": "",
          "type": "address"
        }
      ],
      "stateMutability": "nonpayable",
      "type": "function"
    },
    {
      "inputs": [
        {
          "internalType": "bytes4",
          "name": "_interfaceId",
          "type": "bytes4"
        }
      ],
      "name": "supportsInterface",
      "outputs": [
        {
          "internalType": "bool",
          "name": "",
          "type": "bool"
        }
      ],
      "stateMutability": "view",
      "type": "function"
    },
    {
      "inputs": [
        {
          "internalType": "address",
          "name": "_implementation",
          "type": "address"
        }
      ],
      "name": "updateImplementation",
      "outputs": [],
      "stateMutability": "nonpayable",
      "type": "function"
    },
    {
      "inputs": [
        {
          "components": [
            {
              "internalType": "address",
              "name": "sender",
              "type": "address"
            },
            {
              "internalType": "uint256",
              "name": "nonce",
              "type": "uint256"
            },
            {
              "internalType": "bytes",
              "name": "initCode",
              "type": "bytes"
            },
            {
              "internalType": "bytes",
              "name": "callData",
              "type": "bytes"
            },
            {
              "internalType": "uint256",
              "name": "callGasLimit",
              "type": "uint256"
            },
            {
              "internalType": "uint256",
              "name": "verificationGasLimit",
              "type": "uint256"
            },
            {
              "internalType": "uint256",
              "name": "preVerificationGas",
              "type": "uint256"
            },
            {
              "internalType": "uint256",
              "name": "maxFeePerGas",
              "type": "uint256"
            },
            {
              "internalType": "uint256",
              "name": "maxPriorityFeePerGas",
              "type": "uint256"
            },
            {
              "internalType": "bytes",
              "name": "paymasterAndData",
              "type": "bytes"
            },
            {
              "internalType": "bytes",
              "name": "signature",
              "type": "bytes"
            }
          ],
          "internalType": "struct UserOperation",
          "name": "userOp",
          "type": "tuple"
        },
        {
          "internalType": "bytes32",
          "name": "userOpHash",
          "type": "bytes32"
        },
        {
          "internalType": "uint256",
          "name": "missingAccountFunds",
          "type": "uint256"
        }
      ],
      "name": "validateUserOp",
      "outputs": [
        {
          "internalType": "uint256",
          "name": "validationData",
          "type": "uint256"
        }
      ],
      "stateMutability": "nonpayable",
      "type": "function"
    },
    {
      "inputs": [
        {
          "internalType": "address payable",
          "name": "withdrawAddress",
          "type": "address"
        },
        {
          "internalType": "uint256",
          "name": "amount",
          "type": "uint256"
        }
      ],
      "name": "withdrawDepositTo",
      "outputs": [],
      "stateMutability": "payable",
      "type": "function"
    },
    {
      "stateMutability": "payable",
      "type": "receive"
    }
  ],
  "bytecode": "0x60c06040523480156200001157600080fd5b50604051620025c4380380620025c48339810160408190526200003491620000ae565b3060a0526001600160a01b038116620000605760405163091748f960e21b815260040160405180910390fd5b6001600160a01b0316608052600160008181526020527fada5013122d395ba3c54772283fb069b10426056ef8ca54750cb9bb552a59e7d80546001600160a01b0319169091179055620000e0565b600060208284031215620000c157600080fd5b81516001600160a01b0381168114620000d957600080fd5b9392505050565b60805160a05161248d6200013760003960006101d10152600081816105cd01528181610b9a01528181610ccb01528181610d5301528181611130015281816111c10152818161131b0152611386015261248d6000f3fe6080604052600436106101c25760003560e01c8063610b5925116100f7578063affed0e011610095578063cc2f845211610064578063cc2f845214610626578063e009cfde14610654578063f08a032314610674578063ffa1ad74146106945761023e565b8063affed0e0146105a9578063b0d691fe146105be578063bc673a70146105f1578063c399ec88146106115761023e565b806395851c93116100d157806395851c93146105285780639e5d4c4914610555578063aaf10f4214610575578063acfdf503146105895761023e565b8063610b5925146104b4578063856dfd99146104d4578063912ccaa3146105085761023e565b8063378dfd8e116101645780634a58db191161013e5780634a58db191461044b5780634d44560d146104535780635229073f146104665780635305dd27146104945761023e565b8063378dfd8e146103c55780633a871cdd146103fd578063468721a71461042b5761023e565b8063025b22bc116101a0578063025b22bc1461032c5780631626ba7e1461034c57806321632045146103855780632d9ad53d146103a55761023e565b80610772146102a45780618f2d146102c657806301ffc9a7146102e65761023e565b3661023e576001600160a01b037f000000000000000000000000000000000000000000000000000000000000000016300361021057604051633c97166560e21b815260040160405180910390fd5b604051349033907ed05ab44e279ac59e855cb75dc2ae23b200ad994797b6f1f028f96a46ecce0290600090a3005b34801561024a57600080fd5b507f6c9a6c4a39284e37ed1cf53d337577d14212a4870fb976a4366c693b939918d480548061027557005b36600080373360601b365260008060143601600080855af190503d6000803e8061029e573d6000fd5b503d6000f35b3480156102b057600080fd5b506102c46102bf3660046119d9565b6106ea565b005b3480156102d257600080fd5b506102c46102e1366004611a7a565b610739565b3480156102f257600080fd5b50610317610301366004611b2a565b6001600160e01b0319166301ffc9a760e01b1490565b60405190151581526020015b60405180910390f35b34801561033857600080fd5b506102c4610347366004611b47565b610851565b34801561035857600080fd5b5061036c610367366004611c29565b610926565b6040516001600160e01b03199091168152602001610323565b34801561039157600080fd5b506103176103a0366004611c7f565b610a07565b3480156103b157600080fd5b506103176103c0366004611b47565b610a71565b3480156103d157600080fd5b506103e56103e0366004611cf1565b610aa9565b6040516001600160a01b039091168152602001610323565b34801561040957600080fd5b5061041d610418366004611d3e565b610b8d565b604051908152602001610323565b34801561043757600080fd5b50610317610446366004611d92565b610cb9565b6102c4610cc9565b6102c4610461366004611dfc565b610d49565b34801561047257600080fd5b50610486610481366004611d92565b610dda565b604051610323929190611e78565b3480156104a057600080fd5b506103e56104af366004611e9b565b610e10565b3480156104c057600080fd5b506102c46104cf366004611b47565b610e2b565b3480156104e057600080fd5b507f6c9a6c4a39284e37ed1cf53d337577d14212a4870fb976a4366c693b939918d4546103e5565b34801561051457600080fd5b506102c4610523366004611a7a565b610e3f565b34801561053457600080fd5b5061041d610543366004611ed5565b60326020526000908152604090205481565b34801561056157600080fd5b506102c46105703660046119d9565b610e4d565b34801561058157600080fd5b5030546103e5565b34801561059557600080fd5b506103176105a4366004611eee565b610e59565b3480156105b557600080fd5b5061041d611109565b3480156105ca57600080fd5b507f00000000000000000000000000000000000000000000000000000000000000006103e5565b3480156105fd57600080fd5b506031546103e5906001600160a01b031681565b34801561061d57600080fd5b5061041d6111a1565b34801561063257600080fd5b50610646610641366004611dfc565b6111f0565b604051610323929190611fb2565b34801561066057600080fd5b506102c461066f36600461200f565b6112e9565b34801561068057600080fd5b506102c461068f366004611b47565b6112ff565b3480156106a057600080fd5b506106dd6040518060400160405280600581526020017f322e302e3000000000000000000000000000000000000000000000000000000081525081565b6040516103239190612048565b6106f2611310565b610733848484848080601f01602080910402602001604051908101604052809392919081815260200183838082843760009201919091525061135d92505050565b50505050565b610741611310565b84158061074e5750848314155b806107595750828114155b156107945760405163470c355760e01b8152600481018690526024810184905260448101829052600060648201526084015b60405180910390fd5b60005b85811015610848576108408787838181106107b4576107b461205b565b90506020020160208101906107c99190611b47565b8686848181106107db576107db61205b565b905060200201358585858181106107f4576107f461205b565b90506020028101906108069190612071565b8080601f01602080910402602001604051908101604052809392919081815260200183838082843760009201919091525061135d92505050565b600101610797565b50505050505050565b61085961137b565b6001600160a01b0381166108af5760405162461bcd60e51b815260206004820152601660248201527f416464726573732063616e6e6f74206265207a65726f00000000000000000000604482015260640161078b565b6001600160a01b0381163b6108e257604051630c76093760e01b81526001600160a01b038216600482015260240161078b565b308054908290556040516001600160a01b0380841691908316907faa3f731066a578e5f39b4215468d826cdd15373cbc0dfc9cb9bdc649718ef7da90600090a35050565b60008060008380602001905181019061093f91906120b8565b6001600160a01b0380821660009081526020819052604090205492945090925016156109dd57604051630b135d3f60e11b81526001600160a01b03821690631626ba7e90610993908890869060040161213b565b602060405180830381865afa1580156109b0573d6000803e3d6000fd5b505050506040513d601f19601f820116820180604052508101906109d49190612154565b92505050610a01565b6040516326cc3fab60e21b81526001600160a01b038216600482015260240161078b565b92915050565b60003360011480610a2e5750336000908152602081905260409020546001600160a01b0316155b15610a4e576040516321ac7c5f60e01b815233600482015260240161078b565b610a67868686868615610a6157866113d4565b5a6113d4565b9695505050505050565b600060016001600160a01b03831614801590610a015750506001600160a01b0390811660009081526020819052604090205416151590565b6001600090815260208190527fada5013122d395ba3c54772283fb069b10426056ef8ca54750cb9bb552a59e7d546001600160a01b0316151580610b1e57506000610b127f6c9a6c4a39284e37ed1cf53d337577d14212a4870fb976a4366c693b939918d45490565b6001600160a01b031614155b15610b3b5760405162dc149f60e41b815260040160405180910390fd5b610b44856114da565b610b848484848080601f01602080910402602001604051908101604052809392919081815260200183838082843760009201919091525061156592505050565b95945050505050565b6000336001600160a01b037f00000000000000000000000000000000000000000000000000000000000000001614610bda57604051635dac3db760e11b815233600482015260240161078b565b6000610bea610140860186612071565b810190610bf79190612171565b6001600160a01b03808216600090815260208190526040902054919350161590506109dd576040517ffff35b720000000000000000000000000000000000000000000000000000000081526001600160a01b0382169063fff35b7290610c639088908890600401612227565b6020604051808303816000875af1158015610c82573d6000803e3d6000fd5b505050506040513d601f19601f82011682018060405250810190610ca69190612340565b9150610cb18361162a565b509392505050565b6000610b84858585856000610a07565b7f000000000000000000000000000000000000000000000000000000000000000060405163b760faf960e01b81523060048201526001600160a01b03919091169063b760faf99034906024016000604051808303818588803b158015610d2e57600080fd5b505af1158015610d42573d6000803e3d6000fd5b5050505050565b610d5161137b565b7f000000000000000000000000000000000000000000000000000000000000000060405163040b850f60e31b81526001600160a01b03848116600483015260248201849052919091169063205c287890604401600060405180830381600087803b158015610dbe57600080fd5b505af1158015610dd2573d6000803e3d6000fd5b505050505050565b60006060610dea86868686610cb9565b915060405160203d0181016040523d81523d6000602083013e8091505094509492505050565b6000610e1a61137b565b610e248383611675565b9392505050565b610e3361137b565b610e3c81611689565b50565b610dd2868686868686610739565b610733848484846106ea565b6000871580610e685750878614155b80610e735750858414155b80610e7e5750838214155b15610eb45760405163470c355760e01b81526004810189905260248101879052604481018590526064810183905260840161078b565b3360011480610ed95750336000908152602081905260409020546001600160a01b0316155b15610ef9576040516321ac7c5f60e01b815233600482015260240161078b565b60005b888110156110fc57610fc98a8a83818110610f1957610f1961205b565b9050602002016020810190610f2e9190611b47565b898984818110610f4057610f4061205b565b90506020020135888885818110610f5957610f5961205b565b9050602002810190610f6b9190612071565b8080601f0160208091040260200160405190810160405280939291908181526020018383808284376000920191909152508a9250899150879050818110610fb457610fb461205b565b9050602002016020810190610a619190612359565b915081156110c8577f8c014e41cffd68ba64f3e7830b8b2e4ee860509d8deab25ebbcbba2f0405e2da338b8b848181106110055761100561205b565b905060200201602081019061101a9190611b47565b8a8a8581811061102c5761102c61205b565b905060200201358989868181106110455761104561205b565b90506020028101906110579190612071565b8989888181106110695761106961205b565b905060200201602081019061107e9190612359565b604051611090969594939291906123ac565b60405180910390a160405133907f6895c13664aa4f67288b25d7a21d7aaa34916e355fb9b6fae0a139a9085becb890600090a26110f4565b60405133907facd2c8702804128fdb0db2bb49f6d127dd0181c13fd45dbfe16de0930e2bd37590600090a25b600101610efc565b5098975050505050505050565b604051631aab3f0d60e11b8152306004820152600060248201819052906001600160a01b037f000000000000000000000000000000000000000000000000000000000000000016906335567e1a906044015b602060405180830381865afa158015611178573d6000803e3d6000fd5b505050506040513d601f19601f8201168201806040525081019061119c9190612340565b905090565b6040516370a0823160e01b81523060048201526000906001600160a01b037f000000000000000000000000000000000000000000000000000000000000000016906370a082319060240161115b565b606060008267ffffffffffffffff81111561120d5761120d611b64565b604051908082528060200260200182016040528015611236578160200160208202803683370190505b506001600160a01b0380861660009081526020819052604081205492945091165b6001600160a01b0381161580159061127957506001600160a01b038116600114155b801561128457508482105b156112db578084838151811061129c5761129c61205b565b6001600160a01b0392831660209182029290920181019190915291811660009081529182905260409091205416816112d3816123f9565b925050611257565b908352919491935090915050565b6112f161137b565b6112fb82826117b4565b5050565b61130761137b565b610e3c816114da565b336001600160a01b037f0000000000000000000000000000000000000000000000000000000000000000161461135b5760405163e6fce6a560e01b815233600482015260240161078b565b565b60008082516020840185875af16040513d6000823e81610d42573d81fd5b336001600160a01b037f000000000000000000000000000000000000000000000000000000000000000016148015906113b45750333014155b1561135b57604051634776242160e01b815233600482015260240161078b565b600060018360018111156113ea576113ea612374565b03611402576000808551602087018986f49050611412565b600080855160208701888a87f190505b801561147757836040516114269190612420565b604051809103902085876001600160a01b03167f81d12fffced46c214dfae8ab8fa0b9f7b69f70c9d500e33f612f2105deb261ee868660405161146a92919061243c565b60405180910390a4610b84565b836040516114859190612420565b604051809103902085876001600160a01b03167f3ddd038f78c876172d5dbfd730b14c9f8692dfa197ef104eaac6df3f85a0874a86866040516114c992919061243c565b60405180910390a495945050505050565b6001600160a01b0381166115015760405163dd449f5f60e01b815260040160405180910390fd5b7f6c9a6c4a39284e37ed1cf53d337577d14212a4870fb976a4366c693b939918d48054908290556040516001600160a01b0380841691908316907f06be9a1bea257286cf2afa8205ed494ca9d6a4b41aa58d04238deebada20fb0c90600090a35050565b60008061157284846118eb565b90506001600160a01b038116158061159357506001600160a01b0381166001145b156115bc5760405163cadb248f60e01b81526001600160a01b038216600482015260240161078b565b6001600160a01b03811660008181526020819052604081208054600173ffffffffffffffffffffffffffffffffffffffff19918216811790925591527fada5013122d395ba3c54772283fb069b10426056ef8ca54750cb9bb552a59e7d805490911690911790559392505050565b8015610e3c5760405133906000199083906000818181858888f193505050503d8060008114610733576040519150601f19603f3d011682016040523d82523d6000602084013e610733565b60008061168284846118eb565b9050610e24815b6001600160a01b03811615806116a857506001600160a01b0381166001145b156116d15760405163cadb248f60e01b81526001600160a01b038216600482015260240161078b565b6001600160a01b0381811660009081526020819052604090205416156117155760405163b29d459560e01b81526001600160a01b038216600482015260240161078b565b600060208181527fada5013122d395ba3c54772283fb069b10426056ef8ca54750cb9bb552a59e7d80546001600160a01b03858116808652604080872080549390941673ffffffffffffffffffffffffffffffffffffffff199384161790935560019095528254168417909155519182527fecdf3a3effea5783a3c4c2140e677577666428d44ed9d474a0b3a4c9943f8440910160405180910390a150565b6001600160a01b03811615806117d357506001600160a01b0381166001145b156117fc5760405163cadb248f60e01b81526001600160a01b038216600482015260240161078b565b6001600160a01b03828116600090815260208190526040902054811690821614611864576001600160a01b0382811660008181526020819052604090819020549051633103525b60e21b8152848416600482015292166024830152604482015260640161078b565b6001600160a01b038181166000818152602081815260408083208054888716855282852080549190971673ffffffffffffffffffffffffffffffffffffffff199182161790965592849052825490941690915591519081527faab4fa2b463f581b2b32cb3b7e3b704b9ce37cc209b5fb4d77e593ace4054276910160405180910390a15050565b60006001600160a01b0383166119435760405162461bcd60e51b815260206004820152601a60248201527f57726f6e67204d6f64756c652053657475702041646472657373000000000000604482015260640161078b565b6000808351602085016000875af16040513d6000823e81611962573d81fd5b51949350505050565b6001600160a01b0381168114610e3c57600080fd5b803561198b8161196b565b919050565b60008083601f8401126119a257600080fd5b50813567ffffffffffffffff8111156119ba57600080fd5b6020830191508360208285010111156119d257600080fd5b9250929050565b600080600080606085870312156119ef57600080fd5b84356119fa8161196b565b935060208501359250604085013567ffffffffffffffff811115611a1d57600080fd5b611a2987828801611990565b95989497509550505050565b60008083601f840112611a4757600080fd5b50813567ffffffffffffffff811115611a5f57600080fd5b6020830191508360208260051b85010111156119d257600080fd5b60008060008060008060608789031215611a9357600080fd5b863567ffffffffffffffff80821115611aab57600080fd5b611ab78a838b01611a35565b90985096506020890135915080821115611ad057600080fd5b611adc8a838b01611a35565b90965094506040890135915080821115611af557600080fd5b50611b0289828a01611a35565b979a9699509497509295939492505050565b6001600160e01b031981168114610e3c57600080fd5b600060208284031215611b3c57600080fd5b8135610e2481611b14565b600060208284031215611b5957600080fd5b8135610e248161196b565b634e487b7160e01b600052604160045260246000fd5b604051601f8201601f1916810167ffffffffffffffff81118282101715611ba357611ba3611b64565b604052919050565b600067ffffffffffffffff821115611bc557611bc5611b64565b50601f01601f191660200190565b600082601f830112611be457600080fd5b8135611bf7611bf282611bab565b611b7a565b818152846020838601011115611c0c57600080fd5b816020850160208301376000918101602001919091529392505050565b60008060408385031215611c3c57600080fd5b82359150602083013567ffffffffffffffff811115611c5a57600080fd5b611c6685828601611bd3565b9150509250929050565b80356002811061198b57600080fd5b600080600080600060a08688031215611c9757600080fd5b8535611ca28161196b565b945060208601359350604086013567ffffffffffffffff811115611cc557600080fd5b611cd188828901611bd3565b935050611ce060608701611c70565b949793965091946080013592915050565b60008060008060608587031215611d0757600080fd5b8435611d128161196b565b93506020850135611d228161196b565b9250604085013567ffffffffffffffff811115611a1d57600080fd5b600080600060608486031215611d5357600080fd5b833567ffffffffffffffff811115611d6a57600080fd5b84016101608187031215611d7d57600080fd5b95602085013595506040909401359392505050565b60008060008060808587031215611da857600080fd5b8435611db38161196b565b935060208501359250604085013567ffffffffffffffff811115611dd657600080fd5b611de287828801611bd3565b925050611df160608601611c70565b905092959194509250565b60008060408385031215611e0f57600080fd5b8235611e1a8161196b565b946020939093013593505050565b60005b83811015611e43578181015183820152602001611e2b565b50506000910152565b60008151808452611e64816020860160208601611e28565b601f01601f19169290920160200192915050565b8215158152604060208201526000611e936040830184611e4c565b949350505050565b60008060408385031215611eae57600080fd5b8235611eb98161196b565b9150602083013567ffffffffffffffff811115611c5a57600080fd5b600060208284031215611ee757600080fd5b5035919050565b6000806000806000806000806080898b031215611f0a57600080fd5b883567ffffffffffffffff80821115611f2257600080fd5b611f2e8c838d01611a35565b909a50985060208b0135915080821115611f4757600080fd5b611f538c838d01611a35565b909850965060408b0135915080821115611f6c57600080fd5b611f788c838d01611a35565b909650945060608b0135915080821115611f9157600080fd5b50611f9e8b828c01611a35565b999c989b5096995094979396929594505050565b604080825283519082018190526000906020906060840190828701845b82811015611ff45781516001600160a01b031684529284019290840190600101611fcf565b5050506001600160a01b039490941692019190915250919050565b6000806040838503121561202257600080fd5b823561202d8161196b565b9150602083013561203d8161196b565b809150509250929050565b602081526000610e246020830184611e4c565b634e487b7160e01b600052603260045260246000fd5b6000808335601e1984360301811261208857600080fd5b83018035915067ffffffffffffffff8211156120a357600080fd5b6020019150368190038213156119d257600080fd5b600080604083850312156120cb57600080fd5b825167ffffffffffffffff8111156120e257600080fd5b8301601f810185136120f357600080fd5b8051612101611bf282611bab565b81815286602083850101111561211657600080fd5b612127826020830160208601611e28565b809450505050602083015161203d8161196b565b828152604060208201526000611e936040830184611e4c565b60006020828403121561216657600080fd5b8151610e2481611b14565b6000806040838503121561218457600080fd5b823567ffffffffffffffff81111561219b57600080fd5b6121a785828601611bd3565b925050602083013561203d8161196b565b6000808335601e198436030181126121cf57600080fd5b830160208101925035905067ffffffffffffffff8111156121ef57600080fd5b8036038213156119d257600080fd5b81835281816020850137506000828201602090810191909152601f909101601f19169091010190565b604081526122486040820161223b85611980565b6001600160a01b03169052565b60208301356060820152600061226160408501856121b8565b6101608060808601526122796101a0860183856121fe565b925061228860608801886121b8565b9250603f19808786030160a08801526122a28585846121fe565b9450608089013560c088015260a089013560e0880152610100935060c089013584880152610120915060e089013582880152610140848a0135818901526122eb838b018b6121b8565b955092508188870301848901526123038686856121fe565b9550612311818b018b6121b8565b95509350508087860301610180880152505061232e8383836121fe565b93505050508260208301529392505050565b60006020828403121561235257600080fd5b5051919050565b60006020828403121561236b57600080fd5b610e2482611c70565b634e487b7160e01b600052602160045260246000fd5b600281106123a857634e487b7160e01b600052602160045260246000fd5b9052565b60006001600160a01b03808916835280881660208401525085604083015260a060608301526123df60a0830185876121fe565b90506123ee608083018461238a565b979650505050505050565b60006001820161241957634e487b7160e01b600052601160045260246000fd5b5060010190565b60008251612432818460208701611e28565b9190910192915050565b6040810161244a828561238a565b826020830152939250505056fea2646970667358221220c80ca9c4a43fb5858235c1d82e465b8fb93bb517636dc8a9283261b67b4a658564736f6c63430008110033",
  "linkReferences": {},
  "deployedLinkReferences": {}
}