{
  "_format": "hh-sol-artifact-1",
  "contractName": "SmartAccountFactory",
  "sourceName": "contracts/smart-contract-wallet/SmartAccountFactory.sol",
  "abi": [
    {
      "inputs": [
        {
          "internalType": "address",
          "name": "_basicImplementation",
          "type": "address"
        }
      ],
      "stateMutability": "nonpayable",
      "type": "constructor"
    },
    {
      "anonymous": false,
      "inputs": [
        {
          "indexed": true,
          "internalType": "address",
          "name": "account",
          "type": "address"
        },
        {
          "indexed": true,
          "internalType": "address",
          "name": "initialAuthModule",
          "type": "address"
        },
        {
          "indexed": true,
          "internalType": "uint256",
          "name": "index",
          "type": "uint256"
        }
      ],
      "name": "AccountCreation",
      "type": "event"
    },
    {
      "anonymous": false,
      "inputs": [
        {
          "indexed": true,
          "internalType": "address",
          "name": "account",
          "type": "address"
        },
        {
          "indexed": true,
          "internalType": "address",
          "name": "initialAuthModule",
          "type": "address"
        }
      ],
      "name": "AccountCreationWithoutIndex",
      "type": "event"
    },
    {
      "inputs": [],
      "name": "accountCreationCode",
      "outputs": [
        {
          "internalType": "bytes",
          "name": "",
          "type": "bytes"
        }
      ],
      "stateMutability": "pure",
      "type": "function"
    },
    {
      "inputs": [],
      "name": "basicImplementation",
      "outputs": [
        {
          "internalType": "address",
          "name": "",
          "type": "address"
        }
      ],
      "stateMutability": "view",
      "type": "function"
    },
    {
      "inputs": [
        {
          "internalType": "address",
          "name": "moduleSetupContract",
          "type": "address"
        },
        {
          "internalType": "bytes",
          "name": "moduleSetupData",
          "type": "bytes"
        }
      ],
      "name": "deployAccount",
      "outputs": [
        {
          "internalType": "address",
          "name": "proxy",
          "type": "address"
        }
      ],
      "stateMutability": "nonpayable",
      "type": "function"
    },
    {
      "inputs": [
        {
          "internalType": "address",
          "name": "moduleSetupContract",
          "type": "address"
        },
        {
          "internalType": "bytes",
          "name": "moduleSetupData",
          "type": "bytes"
        },
        {
          "internalType": "uint256",
          "name": "index",
          "type": "uint256"
        }
      ],
      "name": "deployCounterFactualAccount",
      "outputs": [
        {
          "internalType": "address",
          "name": "proxy",
          "type": "address"
        }
      ],
      "stateMutability": "nonpayable",
      "type": "function"
    },
    {
      "inputs": [
        {
          "internalType": "address",
          "name": "moduleSetupContract",
          "type": "address"
        },
        {
          "internalType": "bytes",
          "name": "moduleSetupData",
          "type": "bytes"
        },
        {
          "internalType": "uint256",
          "name": "index",
          "type": "uint256"
        }
      ],
      "name": "getAddressForCounterFactualAccount",
      "outputs": [
        {
          "internalType": "address",
          "name": "_account",
          "type": "address"
        }
      ],
      "stateMutability": "view",
      "type": "function"
    },
    {
      "inputs": [],
      "name": "minimalHandler",
      "outputs": [
        {
          "internalType": "contract DefaultCallbackHandler",
          "name": "",
          "type": "address"
        }
      ],
      "stateMutability": "view",
      "type": "function"
    }
  ],
  "bytecode": "0x60c060405234801561001057600080fd5b5060405161107438038061107483398101604081905261002f916100de565b6001600160a01b0381166100895760405162461bcd60e51b815260206004820152601d60248201527f696d706c656d656e746174696f6e2063616e6e6f74206265207a65726f000000604482015260640160405180910390fd5b6001600160a01b0381166080526040516100a2906100d1565b604051809103906000f0801580156100be573d6000803e3d6000fd5b506001600160a01b031660a0525061010e565b6105e680610a8e83390190565b6000602082840312156100f057600080fd5b81516001600160a01b038116811461010757600080fd5b9392505050565b60805160a05161094161014d6000396000818160c1015261057c01526000818160fb01528181610176015281816102b6015261046101526109416000f3fe608060405234801561001057600080fd5b50600436106100725760003560e01c8063743b1e0311610050578063743b1e03146100e3578063daf0dfc8146100f6578063df20ffbc1461011d57600080fd5b80632e7a1a831461007757806331c884df146100a75780633b3cb143146100bc575b600080fd5b61008a61008536600461066b565b610130565b6040516001600160a01b0390911681526020015b60405180910390f35b6100af610255565b60405161009e91906106e9565b61008a7f000000000000000000000000000000000000000000000000000000000000000081565b61008a6100f136600461071c565b61027f565b61008a7f000000000000000000000000000000000000000000000000000000000000000081565b61008a61012b36600461066b565b6103de565b60008061013e868686610578565b9050600060405180602001610152906105f9565b601f1982820381018352601f90910116604081905261019f91906001600160a01b037f0000000000000000000000000000000000000000000000000000000000000000169060200161076f565b60408051808303601f1901815282825284516020958601208584015282820196909652805180830382018152606080840183528151918601919091208751978601979097207fff0000000000000000000000000000000000000000000000000000000000000060808501523090911b6bffffffffffffffffffffffff19166081840152609583019690965260b5808301969096528051808303909601865260d59091019052508251920191909120949350505050565b606060405180602001610267906105f9565b601f1982820381018352601f90910116604052919050565b60008060405180602001610292906105f9565b601f1982820381018352601f9091011660408190526102df91906001600160a01b037f0000000000000000000000000000000000000000000000000000000000000000169060200161076f565b60405160208183030381529060405290508051816020016000f091506001600160a01b0382166103565760405162461bcd60e51b815260206004820152601260248201527f4372656174652063616c6c206661696c6564000000000000000000000000000060448201526064015b60405180910390fd5b6000610363868686610578565b905060008082511115610394576000808351602085016000885af16040513d6000823e8161038f573d81fd5b519150505b806001600160a01b0316846001600160a01b03167f9a6cbf173278cf7dfadb45414d824f7828c0c94479f1b15e45453653070cf65760405160405180910390a35050509392505050565b6000806103ec868686610578565b90506000818051906020012084604051602001610413929190918252602082015260400190565b60405160208183030381529060405280519060200120905060006040518060200161043d906105f9565b601f1982820381018352601f90910116604081905261048a91906001600160a01b037f0000000000000000000000000000000000000000000000000000000000000000169060200161076f565b6040516020818303038152906040529050818151826020016000f593506001600160a01b0384166104fd5760405162461bcd60e51b815260206004820152601360248201527f437265617465322063616c6c206661696c656400000000000000000000000000604482015260640161034d565b82516000901561052b576000808551602087016000895af16040513d6000823e81610526573d81fd5b519150505b85816001600160a01b0316866001600160a01b03167f8967dcaa00d8fcb9bb2b5beff4aaf8c020063512cf08fbe11fec37a1e3a150f260405160405180910390a450505050949350505050565b60607f00000000000000000000000000000000000000000000000000000000000000008484846040516024016105b19493929190610791565b60408051601f198184030181529190526020810180517bffffffffffffffffffffffffffffffffffffffffffffffffffffffff16631bc6fec760e11b17905290509392505050565b61012d806107df83390190565b80356001600160a01b038116811461061d57600080fd5b919050565b60008083601f84011261063457600080fd5b50813567ffffffffffffffff81111561064c57600080fd5b60208301915083602082850101111561066457600080fd5b9250929050565b6000806000806060858703121561068157600080fd5b61068a85610606565b9350602085013567ffffffffffffffff8111156106a657600080fd5b6106b287828801610622565b9598909750949560400135949350505050565b60005b838110156106e05781810151838201526020016106c8565b50506000910152565b60208152600082518060208401526107088160408501602087016106c5565b601f01601f19169190910160400192915050565b60008060006040848603121561073157600080fd5b61073a84610606565b9250602084013567ffffffffffffffff81111561075657600080fd5b61076286828701610622565b9497909650939450505050565b600083516107818184602088016106c5565b9190910191825250602001919050565b60006001600160a01b03808716835280861660208401525060606040830152826060830152828460808401376000608084840101526080601f19601f85011683010190509594505050505056fe608060405234801561001057600080fd5b5060405161012d38038061012d83398101604081905261002f91610090565b6001600160a01b0381166100895760405162461bcd60e51b815260206004820152601e60248201527f496e76616c696420696d706c656d656e746174696f6e20616464726573730000604482015260640160405180910390fd5b30556100c0565b6000602082840312156100a257600080fd5b81516001600160a01b03811681146100b957600080fd5b9392505050565b605f806100ce6000396000f3fe608060405230543660008037600080366000845af43d6000803e8080156024573d6000f35b3d6000fdfea26469706673582212203c8e0a113c4bda4db8c29f4fc33dbb38d2cde6f1d2327a37cec17531e3f45aad64736f6c63430008110033a2646970667358221220272a9eeb6c5f7e4dcaa6b1d1ba00507fa29eaa301be3ccbd53ba1806a497911164736f6c63430008110033608060405234801561001057600080fd5b506105c6806100206000396000f3fe608060405234801561001057600080fd5b506004361061007c5760003560e01c8063a3f4df7e1161005b578063a3f4df7e146100fb578063bc197c8114610144578063f23a6e6114610166578063ffa1ad741461018657600080fd5b806223de291461008157806301ffc9a71461009b578063150b7a02146100c3575b600080fd5b61009961008f3660046102a0565b5050505050505050565b005b6100ae6100a936600461034b565b6101c2565b60405190151581526020015b60405180910390f35b6100e26100d136600461037c565b630a85bd0160e11b95945050505050565b6040516001600160e01b031990911681526020016100ba565b6101376040518060400160405280601881526020017f44656661756c742043616c6c6261636b2048616e646c6572000000000000000081525081565b6040516100ba91906103eb565b6100e261015236600461047e565b63bc197c8160e01b98975050505050505050565b6100e2610174366004610518565b63f23a6e6160e01b9695505050505050565b6101376040518060400160405280600581526020017f312e302e3000000000000000000000000000000000000000000000000000000081525081565b60006001600160e01b03198216630271189760e51b14806101f357506001600160e01b03198216630a85bd0160e11b145b8061020d57506001600160e01b031982166223de2960e01b145b8061022857506001600160e01b031982166301ffc9a760e01b145b92915050565b803573ffffffffffffffffffffffffffffffffffffffff8116811461025257600080fd5b919050565b60008083601f84011261026957600080fd5b50813567ffffffffffffffff81111561028157600080fd5b60208301915083602082850101111561029957600080fd5b9250929050565b60008060008060008060008060c0898b0312156102bc57600080fd5b6102c58961022e565b97506102d360208a0161022e565b96506102e160408a0161022e565b955060608901359450608089013567ffffffffffffffff8082111561030557600080fd5b6103118c838d01610257565b909650945060a08b013591508082111561032a57600080fd5b506103378b828c01610257565b999c989b5096995094979396929594505050565b60006020828403121561035d57600080fd5b81356001600160e01b03198116811461037557600080fd5b9392505050565b60008060008060006080868803121561039457600080fd5b61039d8661022e565b94506103ab6020870161022e565b935060408601359250606086013567ffffffffffffffff8111156103ce57600080fd5b6103da88828901610257565b969995985093965092949392505050565b600060208083528351808285015260005b81811015610418578581018301518582016040015282016103fc565b506000604082860101526040601f19601f8301168501019250505092915050565b60008083601f84011261044b57600080fd5b50813567ffffffffffffffff81111561046357600080fd5b6020830191508360208260051b850101111561029957600080fd5b60008060008060008060008060a0898b03121561049a57600080fd5b6104a38961022e565b97506104b160208a0161022e565b9650604089013567ffffffffffffffff808211156104ce57600080fd5b6104da8c838d01610439565b909850965060608b01359150808211156104f357600080fd5b6104ff8c838d01610439565b909650945060808b013591508082111561032a57600080fd5b60008060008060008060a0878903121561053157600080fd5b61053a8761022e565b95506105486020880161022e565b94506040870135935060608701359250608087013567ffffffffffffffff81111561057257600080fd5b61057e89828a01610257565b979a969950949750929593949250505056fea264697066735822122036b37f9a472a04c9a04f5bfa97b7aecd6573f462485003c3062f327eecadba7d64736f6c63430008110033",
  "linkReferences": {},
  "deployedLinkReferences": {}
}