{
    "_format": "hh-sol-artifact-1",
    "contractName": "SmartAccount",
    "sourceName": "contracts/smart-account/SmartAccount.sol",
    "abi": [
        {
            "inputs": [
                {
                    "internalType": "contract IEntryPoint",
                    "name": "anEntryPoint",
                    "type": "address"
                }
            ],
            "stateMutability": "nonpayable",
            "type": "constructor"
        },
        {
            "inputs": [],
            "name": "AlreadyInitialized",
            "type": "error"
        },
        {
            "inputs": [],
            "name": "BaseImplementationCannotBeZero",
            "type": "error"
        },
        {
            "inputs": [
                {
                    "internalType": "address",
                    "name": "caller",
                    "type": "address"
                }
            ],
            "name": "CallerIsNotAnEntryPoint",
            "type": "error"
        },
        {
            "inputs": [
                {
                    "internalType": "address",
                    "name": "caller",
                    "type": "address"
                }
            ],
            "name": "CallerIsNotEntryPoint",
            "type": "error"
        },
        {
            "inputs": [
                {
                    "internalType": "address",
                    "name": "caller",
                    "type": "address"
                }
            ],
            "name": "CallerIsNotEntryPointOrOwner",
            "type": "error"
        },
        {
            "inputs": [
                {
                    "internalType": "address",
                    "name": "caller",
                    "type": "address"
                }
            ],
            "name": "CallerIsNotEntryPointOrSelf",
            "type": "error"
        },
        {
            "inputs": [
                {
                    "internalType": "address",
                    "name": "caller",
                    "type": "address"
                }
            ],
            "name": "CallerIsNotOwner",
            "type": "error"
        },
        {
            "inputs": [
                {
                    "internalType": "address",
                    "name": "caller",
                    "type": "address"
                }
            ],
            "name": "CallerIsNotSelf",
            "type": "error"
        },
        {
            "inputs": [],
            "name": "DelegateCallsOnly",
            "type": "error"
        },
        {
            "inputs": [],
            "name": "EntryPointCannotBeZero",
            "type": "error"
        },
        {
            "inputs": [],
            "name": "HandlerCannotBeZero",
            "type": "error"
        },
        {
            "inputs": [
                {
                    "internalType": "address",
                    "name": "implementationAddress",
                    "type": "address"
                }
            ],
            "name": "InvalidImplementation",
            "type": "error"
        },
        {
            "inputs": [
                {
                    "internalType": "address",
                    "name": "caller",
                    "type": "address"
                }
            ],
            "name": "MixedAuthFail",
            "type": "error"
        },
        {
            "inputs": [
                {
                    "internalType": "address",
                    "name": "module",
                    "type": "address"
                }
            ],
            "name": "ModuleAlreadyEnabled",
            "type": "error"
        },
        {
            "inputs": [
                {
                    "internalType": "address",
                    "name": "expectedModule",
                    "type": "address"
                },
                {
                    "internalType": "address",
                    "name": "returnedModule",
                    "type": "address"
                },
                {
                    "internalType": "address",
                    "name": "prevModule",
                    "type": "address"
                }
            ],
            "name": "ModuleAndPrevModuleMismatch",
            "type": "error"
        },
        {
            "inputs": [
                {
                    "internalType": "address",
                    "name": "module",
                    "type": "address"
                }
            ],
            "name": "ModuleCannotBeZeroOrSentinel",
            "type": "error"
        },
        {
            "inputs": [
                {
                    "internalType": "address",
                    "name": "module",
                    "type": "address"
                }
            ],
            "name": "ModuleNotEnabled",
            "type": "error"
        },
        {
            "inputs": [],
            "name": "ModulesAlreadyInitialized",
            "type": "error"
        },
        {
            "inputs": [],
            "name": "ModulesSetupExecutionFailed",
            "type": "error"
        },
        {
            "inputs": [],
            "name": "OwnerCanNotBeSelf",
            "type": "error"
        },
        {
            "inputs": [],
            "name": "OwnerCannotBeZero",
            "type": "error"
        },
        {
            "inputs": [],
            "name": "OwnerProvidedIsSame",
            "type": "error"
        },
        {
            "inputs": [],
            "name": "TransferToZeroAddressAttempt",
            "type": "error"
        },
        {
            "inputs": [
                {
                    "internalType": "uint256",
                    "name": "destLength",
                    "type": "uint256"
                },
                {
                    "internalType": "uint256",
                    "name": "valueLength",
                    "type": "uint256"
                },
                {
                    "internalType": "uint256",
                    "name": "funcLength",
                    "type": "uint256"
                },
                {
                    "internalType": "uint256",
                    "name": "operationLength",
                    "type": "uint256"
                }
            ],
            "name": "WrongBatchProvided",
            "type": "error"
        },
        {
            "inputs": [
                {
                    "internalType": "bytes",
                    "name": "contractSignature",
                    "type": "bytes"
                }
            ],
            "name": "WrongContractSignature",
            "type": "error"
        },
        {
            "inputs": [
                {
                    "internalType": "uint256",
                    "name": "uintS",
                    "type": "uint256"
                },
                {
                    "internalType": "uint256",
                    "name": "contractSignatureLength",
                    "type": "uint256"
                },
                {
                    "internalType": "uint256",
                    "name": "signatureLength",
                    "type": "uint256"
                }
            ],
            "name": "WrongContractSignatureFormat",
            "type": "error"
        },
        {
            "inputs": [
                {
                    "internalType": "address",
                    "name": "moduleAddressProvided",
                    "type": "address"
                }
            ],
            "name": "WrongValidationModule",
            "type": "error"
        },
        {
            "anonymous": false,
            "inputs": [
                {
                    "indexed": true,
                    "internalType": "address",
                    "name": "previousHandler",
                    "type": "address"
                },
                {
                    "indexed": true,
                    "internalType": "address",
                    "name": "handler",
                    "type": "address"
                }
            ],
            "name": "ChangedFallbackHandler",
            "type": "event"
        },
        {
            "anonymous": false,
            "inputs": [
                {
                    "indexed": false,
                    "internalType": "address",
                    "name": "module",
                    "type": "address"
                }
            ],
            "name": "DisabledModule",
            "type": "event"
        },
        {
            "anonymous": false,
            "inputs": [
                {
                    "indexed": false,
                    "internalType": "address",
                    "name": "module",
                    "type": "address"
                }
            ],
            "name": "EnabledModule",
            "type": "event"
        },
        {
            "anonymous": false,
            "inputs": [
                {
                    "indexed": true,
                    "internalType": "address",
                    "name": "to",
                    "type": "address"
                },
                {
                    "indexed": true,
                    "internalType": "uint256",
                    "name": "value",
                    "type": "uint256"
                },
                {
                    "indexed": true,
                    "internalType": "bytes",
                    "name": "data",
                    "type": "bytes"
                },
                {
                    "indexed": false,
                    "internalType": "enum Enum.Operation",
                    "name": "operation",
                    "type": "uint8"
                },
                {
                    "indexed": false,
                    "internalType": "uint256",
                    "name": "txGas",
                    "type": "uint256"
                }
            ],
            "name": "ExecutionFailure",
            "type": "event"
        },
        {
            "anonymous": false,
            "inputs": [
                {
                    "indexed": true,
                    "internalType": "address",
                    "name": "module",
                    "type": "address"
                }
            ],
            "name": "ExecutionFromModuleFailure",
            "type": "event"
        },
        {
            "anonymous": false,
            "inputs": [
                {
                    "indexed": true,
                    "internalType": "address",
                    "name": "module",
                    "type": "address"
                }
            ],
            "name": "ExecutionFromModuleSuccess",
            "type": "event"
        },
        {
            "anonymous": false,
            "inputs": [
                {
                    "indexed": true,
                    "internalType": "address",
                    "name": "to",
                    "type": "address"
                },
                {
                    "indexed": true,
                    "internalType": "uint256",
                    "name": "value",
                    "type": "uint256"
                },
                {
                    "indexed": true,
                    "internalType": "bytes",
                    "name": "data",
                    "type": "bytes"
                },
                {
                    "indexed": false,
                    "internalType": "enum Enum.Operation",
                    "name": "operation",
                    "type": "uint8"
                },
                {
                    "indexed": false,
                    "internalType": "uint256",
                    "name": "txGas",
                    "type": "uint256"
                }
            ],
            "name": "ExecutionSuccess",
            "type": "event"
        },
        {
            "anonymous": false,
            "inputs": [
                {
                    "indexed": true,
                    "internalType": "address",
                    "name": "oldImplementation",
                    "type": "address"
                },
                {
                    "indexed": true,
                    "internalType": "address",
                    "name": "newImplementation",
                    "type": "address"
                }
            ],
            "name": "ImplementationUpdated",
            "type": "event"
        },
        {
            "anonymous": false,
            "inputs": [
                {
                    "indexed": false,
                    "internalType": "address",
                    "name": "module",
                    "type": "address"
                },
                {
                    "indexed": false,
                    "internalType": "address",
                    "name": "to",
                    "type": "address"
                },
                {
                    "indexed": false,
                    "internalType": "uint256",
                    "name": "value",
                    "type": "uint256"
                },
                {
                    "indexed": false,
                    "internalType": "bytes",
                    "name": "data",
                    "type": "bytes"
                },
                {
                    "indexed": false,
                    "internalType": "enum Enum.Operation",
                    "name": "operation",
                    "type": "uint8"
                }
            ],
            "name": "ModuleTransaction",
            "type": "event"
        },
        {
            "anonymous": false,
            "inputs": [
                {
                    "indexed": true,
                    "internalType": "address",
                    "name": "sender",
                    "type": "address"
                },
                {
                    "indexed": true,
                    "internalType": "uint256",
                    "name": "value",
                    "type": "uint256"
                }
            ],
            "name": "SmartAccountReceivedNativeToken",
            "type": "event"
        },
        {
            "stateMutability": "nonpayable",
            "type": "fallback"
        },
        {
            "inputs": [],
            "name": "VERSION",
            "outputs": [
                {
                    "internalType": "string",
                    "name": "",
                    "type": "string"
                }
            ],
            "stateMutability": "view",
            "type": "function"
        },
        {
            "inputs": [],
            "name": "addDeposit",
            "outputs": [],
            "stateMutability": "payable",
            "type": "function"
        },
        {
            "inputs": [
                {
                    "internalType": "address",
                    "name": "prevModule",
                    "type": "address"
                },
                {
                    "internalType": "address",
                    "name": "module",
                    "type": "address"
                }
            ],
            "name": "disableModule",
            "outputs": [],
            "stateMutability": "nonpayable",
            "type": "function"
        },
        {
            "inputs": [
                {
                    "internalType": "address",
                    "name": "module",
                    "type": "address"
                }
            ],
            "name": "enableModule",
            "outputs": [],
            "stateMutability": "nonpayable",
            "type": "function"
        },
        {
            "inputs": [],
            "name": "entryPoint",
            "outputs": [
                {
                    "internalType": "contract IEntryPoint",
                    "name": "",
                    "type": "address"
                }
            ],
            "stateMutability": "view",
            "type": "function"
        },
        {
            "inputs": [
                {
                    "internalType": "address[]",
                    "name": "to",
                    "type": "address[]"
                },
                {
                    "internalType": "uint256[]",
                    "name": "value",
                    "type": "uint256[]"
                },
                {
                    "internalType": "bytes[]",
                    "name": "data",
                    "type": "bytes[]"
                },
                {
                    "internalType": "enum Enum.Operation[]",
                    "name": "operations",
                    "type": "uint8[]"
                }
            ],
            "name": "execBatchTransactionFromModule",
            "outputs": [
                {
                    "internalType": "bool",
                    "name": "success",
                    "type": "bool"
                }
            ],
            "stateMutability": "nonpayable",
            "type": "function"
        },
        {
            "inputs": [
                {
                    "internalType": "address",
                    "name": "to",
                    "type": "address"
                },
                {
                    "internalType": "uint256",
                    "name": "value",
                    "type": "uint256"
                },
                {
                    "internalType": "bytes",
                    "name": "data",
                    "type": "bytes"
                },
                {
                    "internalType": "enum Enum.Operation",
                    "name": "operation",
                    "type": "uint8"
                },
                {
                    "internalType": "uint256",
                    "name": "txGas",
                    "type": "uint256"
                }
            ],
            "name": "execTransactionFromModule",
            "outputs": [
                {
                    "internalType": "bool",
                    "name": "success",
                    "type": "bool"
                }
            ],
            "stateMutability": "nonpayable",
            "type": "function"
        },
        {
            "inputs": [
                {
                    "internalType": "address",
                    "name": "to",
                    "type": "address"
                },
                {
                    "internalType": "uint256",
                    "name": "value",
                    "type": "uint256"
                },
                {
                    "internalType": "bytes",
                    "name": "data",
                    "type": "bytes"
                },
                {
                    "internalType": "enum Enum.Operation",
                    "name": "operation",
                    "type": "uint8"
                }
            ],
            "name": "execTransactionFromModule",
            "outputs": [
                {
                    "internalType": "bool",
                    "name": "",
                    "type": "bool"
                }
            ],
            "stateMutability": "nonpayable",
            "type": "function"
        },
        {
            "inputs": [
                {
                    "internalType": "address",
                    "name": "to",
                    "type": "address"
                },
                {
                    "internalType": "uint256",
                    "name": "value",
                    "type": "uint256"
                },
                {
                    "internalType": "bytes",
                    "name": "data",
                    "type": "bytes"
                },
                {
                    "internalType": "enum Enum.Operation",
                    "name": "operation",
                    "type": "uint8"
                }
            ],
            "name": "execTransactionFromModuleReturnData",
            "outputs": [
                {
                    "internalType": "bool",
                    "name": "success",
                    "type": "bool"
                },
                {
                    "internalType": "bytes",
                    "name": "returnData",
                    "type": "bytes"
                }
            ],
            "stateMutability": "nonpayable",
            "type": "function"
        },
        {
            "inputs": [
                {
                    "internalType": "address",
                    "name": "dest",
                    "type": "address"
                },
                {
                    "internalType": "uint256",
                    "name": "value",
                    "type": "uint256"
                },
                {
                    "internalType": "bytes",
                    "name": "func",
                    "type": "bytes"
                }
            ],
            "name": "execute",
            "outputs": [],
            "stateMutability": "nonpayable",
            "type": "function"
        },
        {
            "inputs": [
                {
                    "internalType": "address[]",
                    "name": "dest",
                    "type": "address[]"
                },
                {
                    "internalType": "uint256[]",
                    "name": "value",
                    "type": "uint256[]"
                },
                {
                    "internalType": "bytes[]",
                    "name": "func",
                    "type": "bytes[]"
                }
            ],
            "name": "executeBatch",
            "outputs": [],
            "stateMutability": "nonpayable",
            "type": "function"
        },
        {
            "inputs": [
                {
                    "internalType": "address[]",
                    "name": "dest",
                    "type": "address[]"
                },
                {
                    "internalType": "uint256[]",
                    "name": "value",
                    "type": "uint256[]"
                },
                {
                    "internalType": "bytes[]",
                    "name": "func",
                    "type": "bytes[]"
                }
            ],
            "name": "executeBatch_y6U",
            "outputs": [],
            "stateMutability": "nonpayable",
            "type": "function"
        },
        {
            "inputs": [
                {
                    "internalType": "address",
                    "name": "dest",
                    "type": "address"
                },
                {
                    "internalType": "uint256",
                    "name": "value",
                    "type": "uint256"
                },
                {
                    "internalType": "bytes",
                    "name": "func",
                    "type": "bytes"
                }
            ],
            "name": "execute_ncC",
            "outputs": [],
            "stateMutability": "nonpayable",
            "type": "function"
        },
        {
            "inputs": [],
            "name": "getDeposit",
            "outputs": [
                {
                    "internalType": "uint256",
                    "name": "",
                    "type": "uint256"
                }
            ],
            "stateMutability": "view",
            "type": "function"
        },
        {
            "inputs": [],
            "name": "getFallbackHandler",
            "outputs": [
                {
                    "internalType": "address",
                    "name": "_handler",
                    "type": "address"
                }
            ],
            "stateMutability": "view",
            "type": "function"
        },
        {
            "inputs": [],
            "name": "getImplementation",
            "outputs": [
                {
                    "internalType": "address",
                    "name": "_implementation",
                    "type": "address"
                }
            ],
            "stateMutability": "view",
            "type": "function"
        },
        {
            "inputs": [
                {
                    "internalType": "address",
                    "name": "start",
                    "type": "address"
                },
                {
                    "internalType": "uint256",
                    "name": "pageSize",
                    "type": "uint256"
                }
            ],
            "name": "getModulesPaginated",
            "outputs": [
                {
                    "internalType": "address[]",
                    "name": "array",
                    "type": "address[]"
                },
                {
                    "internalType": "address",
                    "name": "next",
                    "type": "address"
                }
            ],
            "stateMutability": "view",
            "type": "function"
        },
        {
            "inputs": [
                {
                    "internalType": "address",
                    "name": "handler",
                    "type": "address"
                },
                {
                    "internalType": "address",
                    "name": "moduleSetupContract",
                    "type": "address"
                },
                {
                    "internalType": "bytes",
                    "name": "moduleSetupData",
                    "type": "bytes"
                }
            ],
            "name": "init",
            "outputs": [
                {
                    "internalType": "address",
                    "name": "",
                    "type": "address"
                }
            ],
            "stateMutability": "nonpayable",
            "type": "function"
        },
        {
            "inputs": [
                {
                    "internalType": "address",
                    "name": "module",
                    "type": "address"
                }
            ],
            "name": "isModuleEnabled",
            "outputs": [
                {
                    "internalType": "bool",
                    "name": "",
                    "type": "bool"
                }
            ],
            "stateMutability": "view",
            "type": "function"
        },
        {
            "inputs": [
                {
                    "internalType": "bytes32",
                    "name": "dataHash",
                    "type": "bytes32"
                },
                {
                    "internalType": "bytes",
                    "name": "signature",
                    "type": "bytes"
                }
            ],
            "name": "isValidSignature",
            "outputs": [
                {
                    "internalType": "bytes4",
                    "name": "",
                    "type": "bytes4"
                }
            ],
            "stateMutability": "view",
            "type": "function"
        },
        {
            "inputs": [],
            "name": "nonce",
            "outputs": [
                {
                    "internalType": "uint256",
                    "name": "",
                    "type": "uint256"
                }
            ],
            "stateMutability": "view",
            "type": "function"
        },
        {
            "inputs": [
                {
                    "internalType": "uint256",
                    "name": "",
                    "type": "uint256"
                }
            ],
            "name": "nonces_deprecated",
            "outputs": [
                {
                    "internalType": "uint256",
                    "name": "",
                    "type": "uint256"
                }
            ],
            "stateMutability": "view",
            "type": "function"
        },
        {
            "inputs": [],
            "name": "owner_deprecated",
            "outputs": [
                {
                    "internalType": "address",
                    "name": "",
                    "type": "address"
                }
            ],
            "stateMutability": "view",
            "type": "function"
        },
        {
            "inputs": [
                {
                    "internalType": "address",
                    "name": "handler",
                    "type": "address"
                }
            ],
            "name": "setFallbackHandler",
            "outputs": [],
            "stateMutability": "nonpayable",
            "type": "function"
        },
        {
            "inputs": [
                {
                    "internalType": "address",
                    "name": "setupContract",
                    "type": "address"
                },
                {
                    "internalType": "bytes",
                    "name": "setupData",
                    "type": "bytes"
                }
            ],
            "name": "setupAndEnableModule",
            "outputs": [
                {
                    "internalType": "address",
                    "name": "",
                    "type": "address"
                }
            ],
            "stateMutability": "nonpayable",
            "type": "function"
        },
        {
            "inputs": [
                {
                    "internalType": "bytes4",
                    "name": "_interfaceId",
                    "type": "bytes4"
                }
            ],
            "name": "supportsInterface",
            "outputs": [
                {
                    "internalType": "bool",
                    "name": "",
                    "type": "bool"
                }
            ],
            "stateMutability": "view",
            "type": "function"
        },
        {
            "inputs": [
                {
                    "internalType": "address",
                    "name": "_implementation",
                    "type": "address"
                }
            ],
            "name": "updateImplementation",
            "outputs": [],
            "stateMutability": "nonpayable",
            "type": "function"
        },
        {
            "inputs": [
                {
                    "components": [
                        {
                            "internalType": "address",
                            "name": "sender",
                            "type": "address"
                        },
                        {
                            "internalType": "uint256",
                            "name": "nonce",
                            "type": "uint256"
                        },
                        {
                            "internalType": "bytes",
                            "name": "initCode",
                            "type": "bytes"
                        },
                        {
                            "internalType": "bytes",
                            "name": "callData",
                            "type": "bytes"
                        },
                        {
                            "internalType": "uint256",
                            "name": "callGasLimit",
                            "type": "uint256"
                        },
                        {
                            "internalType": "uint256",
                            "name": "verificationGasLimit",
                            "type": "uint256"
                        },
                        {
                            "internalType": "uint256",
                            "name": "preVerificationGas",
                            "type": "uint256"
                        },
                        {
                            "internalType": "uint256",
                            "name": "maxFeePerGas",
                            "type": "uint256"
                        },
                        {
                            "internalType": "uint256",
                            "name": "maxPriorityFeePerGas",
                            "type": "uint256"
                        },
                        {
                            "internalType": "bytes",
                            "name": "paymasterAndData",
                            "type": "bytes"
                        },
                        {
                            "internalType": "bytes",
                            "name": "signature",
                            "type": "bytes"
                        }
                    ],
                    "internalType": "struct UserOperation",
                    "name": "userOp",
                    "type": "tuple"
                },
                {
                    "internalType": "bytes32",
                    "name": "userOpHash",
                    "type": "bytes32"
                },
                {
                    "internalType": "uint256",
                    "name": "missingAccountFunds",
                    "type": "uint256"
                }
            ],
            "name": "validateUserOp",
            "outputs": [
                {
                    "internalType": "uint256",
                    "name": "validationData",
                    "type": "uint256"
                }
            ],
            "stateMutability": "nonpayable",
            "type": "function"
        },
        {
            "inputs": [
                {
                    "internalType": "address payable",
                    "name": "withdrawAddress",
                    "type": "address"
                },
                {
                    "internalType": "uint256",
                    "name": "amount",
                    "type": "uint256"
                }
            ],
            "name": "withdrawDepositTo",
            "outputs": [],
            "stateMutability": "payable",
            "type": "function"
        },
        {
            "stateMutability": "payable",
            "type": "receive"
        }
    ],
    "bytecode": "0x60c06040523480156200001157600080fd5b5060405162002548380380620025488339810160408190526200003491620000ae565b3060a0526001600160a01b038116620000605760405163091748f960e21b815260040160405180910390fd5b6001600160a01b0316608052600160008181526020527fada5013122d395ba3c54772283fb069b10426056ef8ca54750cb9bb552a59e7d80546001600160a01b0319169091179055620000e0565b600060208284031215620000c157600080fd5b81516001600160a01b0381168114620000d957600080fd5b9392505050565b60805160a0516124116200013760003960006101d10152600081816105ad01528181610b9c01528181610ce301528181610d6b015281816110020152818161109f015281816111f9015261126401526124116000f3fe6080604052600436106101c25760003560e01c80635305dd27116100f7578063b0d691fe11610095578063cc2f845211610064578063cc2f845214610626578063e009cfde14610654578063f08a032314610674578063ffa1ad74146106945761023e565b8063b0d691fe1461059e578063b61d27f6146105d1578063bc673a70146105f1578063c399ec88146106115761023e565b806395851c93116100d157806395851c9314610528578063aaf10f4214610555578063acfdf50314610569578063affed0e0146105895761023e565b80635305dd27146104b4578063610b5925146104d4578063856dfd99146104f45761023e565b8063378dfd8e1161016457806347e1da2a1161013e57806347e1da2a1461044b5780634a58db191461046b5780634d44560d146104735780635229073f146104865761023e565b8063378dfd8e146103c55780633a871cdd146103fd578063468721a71461042b5761023e565b8063025b22bc116101a0578063025b22bc1461032c5780631626ba7e1461034c57806321632045146103855780632d9ad53d146103a55761023e565b8061189a146102a45780614680146102c657806301ffc9a7146102e65761023e565b3661023e576001600160a01b037f000000000000000000000000000000000000000000000000000000000000000016300361021057604051633c97166560e21b815260040160405180910390fd5b604051349033907ed05ab44e279ac59e855cb75dc2ae23b200ad994797b6f1f028f96a46ecce0290600090a3005b34801561024a57600080fd5b507f6c9a6c4a39284e37ed1cf53d337577d14212a4870fb976a4366c693b939918d480548061027557005b36600080373360601b365260008060143601600080855af190503d6000803e8061029e573d6000fd5b503d6000f35b3480156102b057600080fd5b506102c46102bf366004611971565b6106ea565b005b3480156102d257600080fd5b506102c46102e1366004611a12565b610739565b3480156102f257600080fd5b50610317610301366004611ac2565b6001600160e01b0319166301ffc9a760e01b1490565b60405190151581526020015b60405180910390f35b34801561033857600080fd5b506102c4610347366004611adf565b610851565b34801561035857600080fd5b5061036c610367366004611bc1565b610926565b6040516001600160e01b03199091168152602001610323565b34801561039157600080fd5b506103176103a0366004611c17565b610a07565b3480156103b157600080fd5b506103176103c0366004611adf565b610a71565b3480156103d157600080fd5b506103e56103e0366004611c89565b610aa9565b6040516001600160a01b039091168152602001610323565b34801561040957600080fd5b5061041d610418366004611cd6565b610b8f565b604051908152602001610323565b34801561043757600080fd5b50610317610446366004611d2a565b610cbb565b34801561045757600080fd5b506102c4610466366004611a12565b610ccb565b6102c4610ce1565b6102c4610481366004611d94565b610d61565b34801561049257600080fd5b506104a66104a1366004611d2a565b610dea565b604051610323929190611e10565b3480156104c057600080fd5b506103e56104cf366004611e2b565b610e20565b3480156104e057600080fd5b506102c46104ef366004611adf565b610e3b565b34801561050057600080fd5b507f6c9a6c4a39284e37ed1cf53d337577d14212a4870fb976a4366c693b939918d4546103e5565b34801561053457600080fd5b5061041d610543366004611e65565b60326020526000908152604090205481565b34801561056157600080fd5b5030546103e5565b34801561057557600080fd5b50610317610584366004611e7e565b610e4f565b34801561059557600080fd5b5061041d610fdb565b3480156105aa57600080fd5b507f00000000000000000000000000000000000000000000000000000000000000006103e5565b3480156105dd57600080fd5b506102c46105ec366004611971565b611073565b3480156105fd57600080fd5b506031546103e5906001600160a01b031681565b34801561061d57600080fd5b5061041d61107f565b34801561063257600080fd5b50610646610641366004611d94565b6110ce565b604051610323929190611f42565b34801561066057600080fd5b506102c461066f366004611f9f565b6111c7565b34801561068057600080fd5b506102c461068f366004611adf565b6111dd565b3480156106a057600080fd5b506106dd6040518060400160405280600581526020017f322e302e3000000000000000000000000000000000000000000000000000000081525081565b6040516103239190611fd8565b6106f26111ee565b610733848484848080601f01602080910402602001604051908101604052809392919081815260200183838082843760009201919091525061123b92505050565b50505050565b6107416111ee565b84158061074e5750848314155b806107595750828114155b156107945760405163470c355760e01b8152600481018690526024810184905260448101829052600060648201526084015b60405180910390fd5b60005b85811015610848576108408787838181106107b4576107b4611feb565b90506020020160208101906107c99190611adf565b8686848181106107db576107db611feb565b905060200201358585858181106107f4576107f4611feb565b90506020028101906108069190612001565b8080601f01602080910402602001604051908101604052809392919081815260200183838082843760009201919091525061123b92505050565b600101610797565b50505050505050565b610859611259565b6001600160a01b0381166108af5760405162461bcd60e51b815260206004820152601660248201527f416464726573732063616e6e6f74206265207a65726f00000000000000000000604482015260640161078b565b6001600160a01b0381163b6108e257604051630c76093760e01b81526001600160a01b038216600482015260240161078b565b308054908290556040516001600160a01b0380841691908316907faa3f731066a578e5f39b4215468d826cdd15373cbc0dfc9cb9bdc649718ef7da90600090a35050565b60008060008380602001905181019061093f9190612048565b6001600160a01b0380821660009081526020819052604090205492945090925016156109dd57604051630b135d3f60e11b81526001600160a01b03821690631626ba7e9061099390889086906004016120cb565b602060405180830381865afa1580156109b0573d6000803e3d6000fd5b505050506040513d601f19601f820116820180604052508101906109d491906120e4565b92505050610a01565b6040516326cc3fab60e21b81526001600160a01b038216600482015260240161078b565b92915050565b60003360011480610a2e5750336000908152602081905260409020546001600160a01b0316155b15610a4e576040516321ac7c5f60e01b815233600482015260240161078b565b610a67868686868615610a6157866112b2565b5a6112b2565b9695505050505050565b600060016001600160a01b03831614801590610a015750506001600160a01b0390811660009081526020819052604090205416151590565b6001600090815260208190527fada5013122d395ba3c54772283fb069b10426056ef8ca54750cb9bb552a59e7d546001600160a01b0316151580610b1e57506000610b127f6c9a6c4a39284e37ed1cf53d337577d14212a4870fb976a4366c693b939918d45490565b6001600160a01b031614155b15610b3b5760405162dc149f60e41b815260040160405180910390fd5b610b44856113b9565b610b848484848080601f01602080910402602001604051908101604052809392919081815260200183838082843760009201919091525061144492505050565b90505b949350505050565b6000336001600160a01b037f00000000000000000000000000000000000000000000000000000000000000001614610bdc57604051635dac3db760e11b815233600482015260240161078b565b6000610bec610140860186612001565b810190610bf99190612101565b6001600160a01b03808216600090815260208190526040902054919350161590506109dd576040517ffff35b720000000000000000000000000000000000000000000000000000000081526001600160a01b0382169063fff35b7290610c6590889088906004016121b7565b6020604051808303816000875af1158015610c84573d6000803e3d6000fd5b505050506040513d601f19601f82011682018060405250810190610ca891906122d0565b9150610cb383611509565b509392505050565b6000610b84858585856000610a07565b610cd9868686868686610739565b505050505050565b7f000000000000000000000000000000000000000000000000000000000000000060405163b760faf960e01b81523060048201526001600160a01b03919091169063b760faf99034906024016000604051808303818588803b158015610d4657600080fd5b505af1158015610d5a573d6000803e3d6000fd5b5050505050565b610d69611259565b7f000000000000000000000000000000000000000000000000000000000000000060405163040b850f60e31b81526001600160a01b03848116600483015260248201849052919091169063205c287890604401600060405180830381600087803b158015610dd657600080fd5b505af1158015610cd9573d6000803e3d6000fd5b60006060610dfa86868686610cbb565b915060405160203d0181016040523d81523d6000602083013e8091505094509492505050565b6000610e2a611259565b610e348383611554565b9392505050565b610e43611259565b610e4c81611568565b50565b6000871580610e5e5750878614155b80610e695750858414155b80610e745750838214155b15610eaa5760405163470c355760e01b81526004810189905260248101879052604481018590526064810183905260840161078b565b3360011480610ecf5750336000908152602081905260409020546001600160a01b0316155b15610eef576040516321ac7c5f60e01b815233600482015260240161078b565b60005b88811015610fce57610fc48a8a83818110610f0f57610f0f611feb565b9050602002016020810190610f249190611adf565b898984818110610f3657610f36611feb565b90506020020135888885818110610f4f57610f4f611feb565b9050602002810190610f619190612001565b8080601f0160208091040260200160405190810160405280939291908181526020018383808284376000920191909152508a9250899150879050818110610faa57610faa611feb565b9050602002016020810190610fbf91906122e9565b611693565b9150600101610ef2565b5098975050505050505050565b604051631aab3f0d60e11b8152306004820152600060248201819052906001600160a01b037f000000000000000000000000000000000000000000000000000000000000000016906335567e1a906044015b602060405180830381865afa15801561104a573d6000803e3d6000fd5b505050506040513d601f19601f8201168201806040525081019061106e91906122d0565b905090565b610733848484846106ea565b6040516370a0823160e01b81523060048201526000906001600160a01b037f000000000000000000000000000000000000000000000000000000000000000016906370a082319060240161102d565b606060008267ffffffffffffffff8111156110eb576110eb611afc565b604051908082528060200260200182016040528015611114578160200160208202803683370190505b506001600160a01b0380861660009081526020819052604081205492945091165b6001600160a01b0381161580159061115757506001600160a01b038116600114155b801561116257508482105b156111b9578084838151811061117a5761117a611feb565b6001600160a01b0392831660209182029290920181019190915291811660009081529182905260409091205416816111b181612304565b925050611135565b908352919491935090915050565b6111cf611259565b6111d9828261174c565b5050565b6111e5611259565b610e4c816113b9565b336001600160a01b037f000000000000000000000000000000000000000000000000000000000000000016146112395760405163e6fce6a560e01b815233600482015260240161078b565b565b60008082516020840185875af16040513d6000823e81610d5a573d81fd5b336001600160a01b037f000000000000000000000000000000000000000000000000000000000000000016148015906112925750333014155b1561123957604051634776242160e01b815233600482015260240161078b565b600060018360018111156112c8576112c861232b565b036112e0576000808551602087018986f490506112f0565b600080855160208701888a87f190505b801561135557836040516113049190612341565b604051809103902085876001600160a01b03167f81d12fffced46c214dfae8ab8fa0b9f7b69f70c9d500e33f612f2105deb261ee868660405161134892919061237f565b60405180910390a46113b0565b836040516113639190612341565b604051809103902085876001600160a01b03167f3ddd038f78c876172d5dbfd730b14c9f8692dfa197ef104eaac6df3f85a0874a86866040516113a792919061237f565b60405180910390a45b95945050505050565b6001600160a01b0381166113e05760405163dd449f5f60e01b815260040160405180910390fd5b7f6c9a6c4a39284e37ed1cf53d337577d14212a4870fb976a4366c693b939918d48054908290556040516001600160a01b0380841691908316907f06be9a1bea257286cf2afa8205ed494ca9d6a4b41aa58d04238deebada20fb0c90600090a35050565b6000806114518484611883565b90506001600160a01b038116158061147257506001600160a01b0381166001145b1561149b5760405163cadb248f60e01b81526001600160a01b038216600482015260240161078b565b6001600160a01b03811660008181526020819052604081208054600173ffffffffffffffffffffffffffffffffffffffff19918216811790925591527fada5013122d395ba3c54772283fb069b10426056ef8ca54750cb9bb552a59e7d805490911690911790559392505050565b8015610e4c5760405133906000199083906000818181858888f193505050503d8060008114610733576040519150601f19603f3d011682016040523d82523d6000602084013e610733565b6000806115618484611883565b9050610e34815b6001600160a01b038116158061158757506001600160a01b0381166001145b156115b05760405163cadb248f60e01b81526001600160a01b038216600482015260240161078b565b6001600160a01b0381811660009081526020819052604090205416156115f45760405163b29d459560e01b81526001600160a01b038216600482015260240161078b565b600060208181527fada5013122d395ba3c54772283fb069b10426056ef8ca54750cb9bb552a59e7d80546001600160a01b03858116808652604080872080549390941673ffffffffffffffffffffffffffffffffffffffff199384161790935560019095528254168417909155519182527fecdf3a3effea5783a3c4c2140e677577666428d44ed9d474a0b3a4c9943f8440910160405180910390a150565b60006116a2858585855a6112b2565b90508015611719577f8c014e41cffd68ba64f3e7830b8b2e4ee860509d8deab25ebbcbba2f0405e2da33868686866040516116e195949392919061239a565b60405180910390a160405133907f6895c13664aa4f67288b25d7a21d7aaa34916e355fb9b6fae0a139a9085becb890600090a2610b87565b60405133907facd2c8702804128fdb0db2bb49f6d127dd0181c13fd45dbfe16de0930e2bd37590600090a2949350505050565b6001600160a01b038116158061176b57506001600160a01b0381166001145b156117945760405163cadb248f60e01b81526001600160a01b038216600482015260240161078b565b6001600160a01b038281166000908152602081905260409020548116908216146117fc576001600160a01b0382811660008181526020819052604090819020549051633103525b60e21b8152848416600482015292166024830152604482015260640161078b565b6001600160a01b038181166000818152602081815260408083208054888716855282852080549190971673ffffffffffffffffffffffffffffffffffffffff199182161790965592849052825490941690915591519081527faab4fa2b463f581b2b32cb3b7e3b704b9ce37cc209b5fb4d77e593ace4054276910160405180910390a15050565b60006001600160a01b0383166118db5760405162461bcd60e51b815260206004820152601a60248201527f57726f6e67204d6f64756c652053657475702041646472657373000000000000604482015260640161078b565b6000808351602085016000875af16040513d6000823e816118fa573d81fd5b51949350505050565b6001600160a01b0381168114610e4c57600080fd5b803561192381611903565b919050565b60008083601f84011261193a57600080fd5b50813567ffffffffffffffff81111561195257600080fd5b60208301915083602082850101111561196a57600080fd5b9250929050565b6000806000806060858703121561198757600080fd5b843561199281611903565b935060208501359250604085013567ffffffffffffffff8111156119b557600080fd5b6119c187828801611928565b95989497509550505050565b60008083601f8401126119df57600080fd5b50813567ffffffffffffffff8111156119f757600080fd5b6020830191508360208260051b850101111561196a57600080fd5b60008060008060008060608789031215611a2b57600080fd5b863567ffffffffffffffff80821115611a4357600080fd5b611a4f8a838b016119cd565b90985096506020890135915080821115611a6857600080fd5b611a748a838b016119cd565b90965094506040890135915080821115611a8d57600080fd5b50611a9a89828a016119cd565b979a9699509497509295939492505050565b6001600160e01b031981168114610e4c57600080fd5b600060208284031215611ad457600080fd5b8135610e3481611aac565b600060208284031215611af157600080fd5b8135610e3481611903565b634e487b7160e01b600052604160045260246000fd5b604051601f8201601f1916810167ffffffffffffffff81118282101715611b3b57611b3b611afc565b604052919050565b600067ffffffffffffffff821115611b5d57611b5d611afc565b50601f01601f191660200190565b600082601f830112611b7c57600080fd5b8135611b8f611b8a82611b43565b611b12565b818152846020838601011115611ba457600080fd5b816020850160208301376000918101602001919091529392505050565b60008060408385031215611bd457600080fd5b82359150602083013567ffffffffffffffff811115611bf257600080fd5b611bfe85828601611b6b565b9150509250929050565b80356002811061192357600080fd5b600080600080600060a08688031215611c2f57600080fd5b8535611c3a81611903565b945060208601359350604086013567ffffffffffffffff811115611c5d57600080fd5b611c6988828901611b6b565b935050611c7860608701611c08565b949793965091946080013592915050565b60008060008060608587031215611c9f57600080fd5b8435611caa81611903565b93506020850135611cba81611903565b9250604085013567ffffffffffffffff8111156119b557600080fd5b600080600060608486031215611ceb57600080fd5b833567ffffffffffffffff811115611d0257600080fd5b84016101608187031215611d1557600080fd5b95602085013595506040909401359392505050565b60008060008060808587031215611d4057600080fd5b8435611d4b81611903565b935060208501359250604085013567ffffffffffffffff811115611d6e57600080fd5b611d7a87828801611b6b565b925050611d8960608601611c08565b905092959194509250565b60008060408385031215611da757600080fd5b8235611db281611903565b946020939093013593505050565b60005b83811015611ddb578181015183820152602001611dc3565b50506000910152565b60008151808452611dfc816020860160208601611dc0565b601f01601f19169290920160200192915050565b8215158152604060208201526000610b876040830184611de4565b60008060408385031215611e3e57600080fd5b8235611e4981611903565b9150602083013567ffffffffffffffff811115611bf257600080fd5b600060208284031215611e7757600080fd5b5035919050565b6000806000806000806000806080898b031215611e9a57600080fd5b883567ffffffffffffffff80821115611eb257600080fd5b611ebe8c838d016119cd565b909a50985060208b0135915080821115611ed757600080fd5b611ee38c838d016119cd565b909850965060408b0135915080821115611efc57600080fd5b611f088c838d016119cd565b909650945060608b0135915080821115611f2157600080fd5b50611f2e8b828c016119cd565b999c989b5096995094979396929594505050565b604080825283519082018190526000906020906060840190828701845b82811015611f845781516001600160a01b031684529284019290840190600101611f5f565b5050506001600160a01b039490941692019190915250919050565b60008060408385031215611fb257600080fd5b8235611fbd81611903565b91506020830135611fcd81611903565b809150509250929050565b602081526000610e346020830184611de4565b634e487b7160e01b600052603260045260246000fd5b6000808335601e1984360301811261201857600080fd5b83018035915067ffffffffffffffff82111561203357600080fd5b60200191503681900382131561196a57600080fd5b6000806040838503121561205b57600080fd5b825167ffffffffffffffff81111561207257600080fd5b8301601f8101851361208357600080fd5b8051612091611b8a82611b43565b8181528660208385010111156120a657600080fd5b6120b7826020830160208601611dc0565b8094505050506020830151611fcd81611903565b828152604060208201526000610b876040830184611de4565b6000602082840312156120f657600080fd5b8151610e3481611aac565b6000806040838503121561211457600080fd5b823567ffffffffffffffff81111561212b57600080fd5b61213785828601611b6b565b9250506020830135611fcd81611903565b6000808335601e1984360301811261215f57600080fd5b830160208101925035905067ffffffffffffffff81111561217f57600080fd5b80360382131561196a57600080fd5b81835281816020850137506000828201602090810191909152601f909101601f19169091010190565b604081526121d8604082016121cb85611918565b6001600160a01b03169052565b6020830135606082015260006121f16040850185612148565b6101608060808601526122096101a08601838561218e565b92506122186060880188612148565b9250603f19808786030160a088015261223285858461218e565b9450608089013560c088015260a089013560e0880152610100935060c089013584880152610120915060e089013582880152610140848a01358189015261227b838b018b612148565b9550925081888703018489015261229386868561218e565b95506122a1818b018b612148565b9550935050808786030161018088015250506122be83838361218e565b93505050508260208301529392505050565b6000602082840312156122e257600080fd5b5051919050565b6000602082840312156122fb57600080fd5b610e3482611c08565b60006001820161232457634e487b7160e01b600052601160045260246000fd5b5060010190565b634e487b7160e01b600052602160045260246000fd5b60008251612353818460208701611dc0565b9190910192915050565b6002811061237b57634e487b7160e01b600052602160045260246000fd5b9052565b6040810161238d828561235d565b8260208301529392505050565b60006001600160a01b03808816835280871660208401525084604083015260a060608301526123cc60a0830185611de4565b9050610a67608083018461235d56fea2646970667358221220d009eb7658f3b56d82188a22a6cae0c796830cd84d0df5e953201c3eeafb0abf64736f6c63430008110033",
    "linkReferences": {},
    "deployedLinkReferences": {}
}