{
    "_format": "hh-sol-artifact-1",
    "contractName": "SmartAccountFactory",
    "sourceName": "contracts/smart-account/factory/SmartAccountFactory.sol",
    "abi": [
        {
            "inputs": [
                {
                    "internalType": "address",
                    "name": "_basicImplementation",
                    "type": "address"
                },
                {
                    "internalType": "address",
                    "name": "_newOwner",
                    "type": "address"
                }
            ],
            "stateMutability": "nonpayable",
            "type": "constructor"
        },
        {
            "anonymous": false,
            "inputs": [
                {
                    "indexed": true,
                    "internalType": "address",
                    "name": "account",
                    "type": "address"
                },
                {
                    "indexed": true,
                    "internalType": "address",
                    "name": "initialAuthModule",
                    "type": "address"
                },
                {
                    "indexed": true,
                    "internalType": "uint256",
                    "name": "index",
                    "type": "uint256"
                }
            ],
            "name": "AccountCreation",
            "type": "event"
        },
        {
            "anonymous": false,
            "inputs": [
                {
                    "indexed": true,
                    "internalType": "address",
                    "name": "account",
                    "type": "address"
                },
                {
                    "indexed": true,
                    "internalType": "address",
                    "name": "initialAuthModule",
                    "type": "address"
                }
            ],
            "name": "AccountCreationWithoutIndex",
            "type": "event"
        },
        {
            "anonymous": false,
            "inputs": [
                {
                    "indexed": true,
                    "internalType": "address",
                    "name": "previousOwner",
                    "type": "address"
                },
                {
                    "indexed": true,
                    "internalType": "address",
                    "name": "newOwner",
                    "type": "address"
                }
            ],
            "name": "OwnershipTransferred",
            "type": "event"
        },
        {
            "inputs": [],
            "name": "accountCreationCode",
            "outputs": [
                {
                    "internalType": "bytes",
                    "name": "",
                    "type": "bytes"
                }
            ],
            "stateMutability": "pure",
            "type": "function"
        },
        {
            "inputs": [
                {
                    "internalType": "address",
                    "name": "epAddress",
                    "type": "address"
                },
                {
                    "internalType": "uint32",
                    "name": "unstakeDelaySec",
                    "type": "uint32"
                }
            ],
            "name": "addStake",
            "outputs": [],
            "stateMutability": "payable",
            "type": "function"
        },
        {
            "inputs": [],
            "name": "basicImplementation",
            "outputs": [
                {
                    "internalType": "address",
                    "name": "",
                    "type": "address"
                }
            ],
            "stateMutability": "view",
            "type": "function"
        },
        {
            "inputs": [
                {
                    "internalType": "address",
                    "name": "moduleSetupContract",
                    "type": "address"
                },
                {
                    "internalType": "bytes",
                    "name": "moduleSetupData",
                    "type": "bytes"
                }
            ],
            "name": "deployAccount",
            "outputs": [
                {
                    "internalType": "address",
                    "name": "proxy",
                    "type": "address"
                }
            ],
            "stateMutability": "nonpayable",
            "type": "function"
        },
        {
            "inputs": [
                {
                    "internalType": "address",
                    "name": "moduleSetupContract",
                    "type": "address"
                },
                {
                    "internalType": "bytes",
                    "name": "moduleSetupData",
                    "type": "bytes"
                },
                {
                    "internalType": "uint256",
                    "name": "index",
                    "type": "uint256"
                }
            ],
            "name": "deployCounterFactualAccount",
            "outputs": [
                {
                    "internalType": "address",
                    "name": "proxy",
                    "type": "address"
                }
            ],
            "stateMutability": "nonpayable",
            "type": "function"
        },
        {
            "inputs": [
                {
                    "internalType": "address",
                    "name": "moduleSetupContract",
                    "type": "address"
                },
                {
                    "internalType": "bytes",
                    "name": "moduleSetupData",
                    "type": "bytes"
                },
                {
                    "internalType": "uint256",
                    "name": "index",
                    "type": "uint256"
                }
            ],
            "name": "getAddressForCounterFactualAccount",
            "outputs": [
                {
                    "internalType": "address",
                    "name": "_account",
                    "type": "address"
                }
            ],
            "stateMutability": "view",
            "type": "function"
        },
        {
            "inputs": [],
            "name": "minimalHandler",
            "outputs": [
                {
                    "internalType": "contract DefaultCallbackHandler",
                    "name": "",
                    "type": "address"
                }
            ],
            "stateMutability": "view",
            "type": "function"
        },
        {
            "inputs": [],
            "name": "owner",
            "outputs": [
                {
                    "internalType": "address",
                    "name": "",
                    "type": "address"
                }
            ],
            "stateMutability": "view",
            "type": "function"
        },
        {
            "inputs": [],
            "name": "renounceOwnership",
            "outputs": [],
            "stateMutability": "nonpayable",
            "type": "function"
        },
        {
            "inputs": [
                {
                    "internalType": "address",
                    "name": "newOwner",
                    "type": "address"
                }
            ],
            "name": "transferOwnership",
            "outputs": [],
            "stateMutability": "nonpayable",
            "type": "function"
        },
        {
            "inputs": [
                {
                    "internalType": "address",
                    "name": "epAddress",
                    "type": "address"
                }
            ],
            "name": "unlockStake",
            "outputs": [],
            "stateMutability": "nonpayable",
            "type": "function"
        },
        {
            "inputs": [
                {
                    "internalType": "address",
                    "name": "epAddress",
                    "type": "address"
                },
                {
                    "internalType": "address payable",
                    "name": "withdrawAddress",
                    "type": "address"
                }
            ],
            "name": "withdrawStake",
            "outputs": [],
            "stateMutability": "nonpayable",
            "type": "function"
        }
    ],
    "bytecode": "0x60c06040523480156200001157600080fd5b506040516200166538038062001665833981016040819052620000349162000170565b806200004033620000f5565b6200004b81620000f5565b506001600160a01b038216620000a75760405162461bcd60e51b815260206004820152601d60248201527f696d706c656d656e746174696f6e2063616e6e6f74206265207a65726f000000604482015260640160405180910390fd5b6001600160a01b038216608052604051620000c29062000145565b604051809103906000f080158015620000df573d6000803e3d6000fd5b506001600160a01b031660a05250620001a89050565b600080546001600160a01b038381166001600160a01b0319831681178455604051919092169283917f8be0079c531659141344cd1fd0a4f28419497f9722a3daafe3b4186f6b6457e09190a35050565b6105e6806200107f83390190565b80516001600160a01b03811681146200016b57600080fd5b919050565b600080604083850312156200018457600080fd5b6200018f8362000153565b91506200019f6020840162000153565b90509250929050565b60805160a051610e95620001ea6000396000818161013d015261097d015260008181610219015281816102c10152818161057a01526107d20152610e956000f3fe6080604052600436106100c75760003560e01c8063743b1e0311610074578063daf0dfc81161004e578063daf0dfc814610207578063df20ffbc1461023b578063f2fde38b1461025b57600080fd5b8063743b1e03146101a95780638da5cb5b146101c9578063b36f9705146101e757600080fd5b806345171159116100a5578063451711591461015f5780634a1ce59914610174578063715018a61461019457600080fd5b80632e7a1a83146100cc57806331c884df146101095780633b3cb1431461012b575b600080fd5b3480156100d857600080fd5b506100ec6100e7366004610b27565b61027b565b6040516001600160a01b0390911681526020015b60405180910390f35b34801561011557600080fd5b5061011e6103a0565b6040516101009190610ba7565b34801561013757600080fd5b506100ec7f000000000000000000000000000000000000000000000000000000000000000081565b61017261016d366004610bda565b6103ca565b005b34801561018057600080fd5b5061017261018f366004610c1c565b610486565b3480156101a057600080fd5b5061017261052f565b3480156101b557600080fd5b506100ec6101c4366004610c40565b610543565b3480156101d557600080fd5b506000546001600160a01b03166100ec565b3480156101f357600080fd5b50610172610202366004610c95565b61069d565b34801561021357600080fd5b506100ec7f000000000000000000000000000000000000000000000000000000000000000081565b34801561024757600080fd5b506100ec610256366004610b27565b61074f565b34801561026757600080fd5b50610172610276366004610c1c565b6108e9565b600080610289868686610979565b905060006040518060200161029d90610abc565b601f1982820381018352601f9091011660408190526102ea91906001600160a01b037f00000000000000000000000000000000000000000000000000000000000000001690602001610cc3565b60408051808303601f1901815282825284516020958601208584015282820196909652805180830382018152606080840183528151918601919091208751978601979097207fff0000000000000000000000000000000000000000000000000000000000000060808501523090911b6bffffffffffffffffffffffff19166081840152609583019690965260b5808301969096528051808303909601865260d59091019052508251920191909120949350505050565b6060604051806020016103b290610abc565b601f1982820381018352601f90910116604052919050565b6103d26109fa565b6001600160a01b0382166104225760405162461bcd60e51b8152602060048201526012602482015271496e76616c6964204550206164647265737360701b60448201526064015b60405180910390fd5b604051621cb65b60e51b815263ffffffff821660048201526001600160a01b03831690630396cb609034906024016000604051808303818588803b15801561046957600080fd5b505af115801561047d573d6000803e3d6000fd5b50505050505050565b61048e6109fa565b6001600160a01b0381166104d95760405162461bcd60e51b8152602060048201526012602482015271496e76616c6964204550206164647265737360701b6044820152606401610419565b806001600160a01b031663bb9fe6bf6040518163ffffffff1660e01b8152600401600060405180830381600087803b15801561051457600080fd5b505af1158015610528573d6000803e3d6000fd5b5050505050565b6105376109fa565b6105416000610a54565b565b6000806040518060200161055690610abc565b601f1982820381018352601f9091011660408190526105a391906001600160a01b037f00000000000000000000000000000000000000000000000000000000000000001690602001610cc3565b60405160208183030381529060405290508051816020016000f091506001600160a01b0382166106155760405162461bcd60e51b815260206004820152601260248201527f4372656174652063616c6c206661696c656400000000000000000000000000006044820152606401610419565b6000610622868686610979565b905060008082511115610653576000808351602085016000885af16040513d6000823e8161064e573d81fd5b519150505b806001600160a01b0316846001600160a01b03167f9a6cbf173278cf7dfadb45414d824f7828c0c94479f1b15e45453653070cf65760405160405180910390a35050509392505050565b6106a56109fa565b6001600160a01b0382166106f05760405162461bcd60e51b8152602060048201526012602482015271496e76616c6964204550206164647265737360701b6044820152606401610419565b60405163611d2e7560e11b81526001600160a01b03828116600483015283169063c23a5cea90602401600060405180830381600087803b15801561073357600080fd5b505af1158015610747573d6000803e3d6000fd5b505050505050565b60008061075d868686610979565b90506000818051906020012084604051602001610784929190918252602082015260400190565b6040516020818303038152906040528051906020012090506000604051806020016107ae90610abc565b601f1982820381018352601f9091011660408190526107fb91906001600160a01b037f00000000000000000000000000000000000000000000000000000000000000001690602001610cc3565b6040516020818303038152906040529050818151826020016000f593506001600160a01b03841661086e5760405162461bcd60e51b815260206004820152601360248201527f437265617465322063616c6c206661696c6564000000000000000000000000006044820152606401610419565b82516000901561089c576000808551602087016000895af16040513d6000823e81610897573d81fd5b519150505b85816001600160a01b0316866001600160a01b03167f8967dcaa00d8fcb9bb2b5beff4aaf8c020063512cf08fbe11fec37a1e3a150f260405160405180910390a450505050949350505050565b6108f16109fa565b6001600160a01b03811661096d5760405162461bcd60e51b815260206004820152602660248201527f4f776e61626c653a206e6577206f776e657220697320746865207a65726f206160448201527f64647265737300000000000000000000000000000000000000000000000000006064820152608401610419565b61097681610a54565b50565b60607f00000000000000000000000000000000000000000000000000000000000000008484846040516024016109b29493929190610ce5565b60408051601f198184030181529190526020810180517bffffffffffffffffffffffffffffffffffffffffffffffffffffffff16631bc6fec760e11b17905290509392505050565b6000546001600160a01b031633146105415760405162461bcd60e51b815260206004820181905260248201527f4f776e61626c653a2063616c6c6572206973206e6f7420746865206f776e65726044820152606401610419565b600080546001600160a01b038381167fffffffffffffffffffffffff0000000000000000000000000000000000000000831681178455604051919092169283917f8be0079c531659141344cd1fd0a4f28419497f9722a3daafe3b4186f6b6457e09190a35050565b61012d80610d3383390190565b6001600160a01b038116811461097657600080fd5b60008083601f840112610af057600080fd5b50813567ffffffffffffffff811115610b0857600080fd5b602083019150836020828501011115610b2057600080fd5b9250929050565b60008060008060608587031215610b3d57600080fd5b8435610b4881610ac9565b9350602085013567ffffffffffffffff811115610b6457600080fd5b610b7087828801610ade565b9598909750949560400135949350505050565b60005b83811015610b9e578181015183820152602001610b86565b50506000910152565b6020815260008251806020840152610bc6816040850160208701610b83565b601f01601f19169190910160400192915050565b60008060408385031215610bed57600080fd5b8235610bf881610ac9565b9150602083013563ffffffff81168114610c1157600080fd5b809150509250929050565b600060208284031215610c2e57600080fd5b8135610c3981610ac9565b9392505050565b600080600060408486031215610c5557600080fd5b8335610c6081610ac9565b9250602084013567ffffffffffffffff811115610c7c57600080fd5b610c8886828701610ade565b9497909650939450505050565b60008060408385031215610ca857600080fd5b8235610cb381610ac9565b91506020830135610c1181610ac9565b60008351610cd5818460208801610b83565b9190910191825250602001919050565b60006001600160a01b03808716835280861660208401525060606040830152826060830152828460808401376000608084840101526080601f19601f85011683010190509594505050505056fe608060405234801561001057600080fd5b5060405161012d38038061012d83398101604081905261002f91610090565b6001600160a01b0381166100895760405162461bcd60e51b815260206004820152601e60248201527f496e76616c696420696d706c656d656e746174696f6e20616464726573730000604482015260640160405180910390fd5b30556100c0565b6000602082840312156100a257600080fd5b81516001600160a01b03811681146100b957600080fd5b9392505050565b605f806100ce6000396000f3fe608060405230543660008037600080366000845af43d6000803e8080156024573d6000f35b3d6000fdfea2646970667358221220197bddcaa4be7d28115df8f476b8dcefa8ba4c9dbe31f7caf1b96f809c0f9e5264736f6c63430008110033a2646970667358221220f4fd3e32727b0d5c1d67ed3cf9aa3b81178731a5e8396a4a639deb519f2d4c4e64736f6c63430008110033608060405234801561001057600080fd5b506105c6806100206000396000f3fe608060405234801561001057600080fd5b506004361061007c5760003560e01c8063a3f4df7e1161005b578063a3f4df7e146100fb578063bc197c8114610144578063f23a6e6114610166578063ffa1ad741461018657600080fd5b806223de291461008157806301ffc9a71461009b578063150b7a02146100c3575b600080fd5b61009961008f3660046102a0565b5050505050505050565b005b6100ae6100a936600461034b565b6101c2565b60405190151581526020015b60405180910390f35b6100e26100d136600461037c565b630a85bd0160e11b95945050505050565b6040516001600160e01b031990911681526020016100ba565b6101376040518060400160405280601881526020017f44656661756c742043616c6c6261636b2048616e646c6572000000000000000081525081565b6040516100ba91906103eb565b6100e261015236600461047e565b63bc197c8160e01b98975050505050505050565b6100e2610174366004610518565b63f23a6e6160e01b9695505050505050565b6101376040518060400160405280600581526020017f312e302e3000000000000000000000000000000000000000000000000000000081525081565b60006001600160e01b03198216630271189760e51b14806101f357506001600160e01b03198216630a85bd0160e11b145b8061020d57506001600160e01b031982166223de2960e01b145b8061022857506001600160e01b031982166301ffc9a760e01b145b92915050565b803573ffffffffffffffffffffffffffffffffffffffff8116811461025257600080fd5b919050565b60008083601f84011261026957600080fd5b50813567ffffffffffffffff81111561028157600080fd5b60208301915083602082850101111561029957600080fd5b9250929050565b60008060008060008060008060c0898b0312156102bc57600080fd5b6102c58961022e565b97506102d360208a0161022e565b96506102e160408a0161022e565b955060608901359450608089013567ffffffffffffffff8082111561030557600080fd5b6103118c838d01610257565b909650945060a08b013591508082111561032a57600080fd5b506103378b828c01610257565b999c989b5096995094979396929594505050565b60006020828403121561035d57600080fd5b81356001600160e01b03198116811461037557600080fd5b9392505050565b60008060008060006080868803121561039457600080fd5b61039d8661022e565b94506103ab6020870161022e565b935060408601359250606086013567ffffffffffffffff8111156103ce57600080fd5b6103da88828901610257565b969995985093965092949392505050565b600060208083528351808285015260005b81811015610418578581018301518582016040015282016103fc565b506000604082860101526040601f19601f8301168501019250505092915050565b60008083601f84011261044b57600080fd5b50813567ffffffffffffffff81111561046357600080fd5b6020830191508360208260051b850101111561029957600080fd5b60008060008060008060008060a0898b03121561049a57600080fd5b6104a38961022e565b97506104b160208a0161022e565b9650604089013567ffffffffffffffff808211156104ce57600080fd5b6104da8c838d01610439565b909850965060608b01359150808211156104f357600080fd5b6104ff8c838d01610439565b909650945060808b013591508082111561032a57600080fd5b60008060008060008060a0878903121561053157600080fd5b61053a8761022e565b95506105486020880161022e565b94506040870135935060608701359250608087013567ffffffffffffffff81111561057257600080fd5b61057e89828a01610257565b979a969950949750929593949250505056fea26469706673582212205cd0229d5efcf14ee448f46f7f632534cd99cf6a9cf9b86f746ae9d6043c302d64736f6c63430008110033",
    "linkReferences": {},
    "deployedLinkReferences": {}
}