{
  "_format": "hh-sol-artifact-1",
  "contractName": "SmartAccount",
  "sourceName": "contracts/smart-account/SmartAccount.sol",
  "abi": [
    {
      "inputs": [
        {
          "internalType": "contract IEntryPoint",
          "name": "anEntryPoint",
          "type": "address"
        }
      ],
      "stateMutability": "nonpayable",
      "type": "constructor"
    },
    {
      "inputs": [],
      "name": "AlreadyInitialized",
      "type": "error"
    },
    {
      "inputs": [],
      "name": "BaseImplementationCannotBeZero",
      "type": "error"
    },
    {
      "inputs": [
        {
          "internalType": "address",
          "name": "caller",
          "type": "address"
        }
      ],
      "name": "CallerIsNotAnEntryPoint",
      "type": "error"
    },
    {
      "inputs": [
        {
          "internalType": "address",
          "name": "caller",
          "type": "address"
        }
      ],
      "name": "CallerIsNotEntryPoint",
      "type": "error"
    },
    {
      "inputs": [
        {
          "internalType": "address",
          "name": "caller",
          "type": "address"
        }
      ],
      "name": "CallerIsNotEntryPointOrOwner",
      "type": "error"
    },
    {
      "inputs": [
        {
          "internalType": "address",
          "name": "caller",
          "type": "address"
        }
      ],
      "name": "CallerIsNotEntryPointOrSelf",
      "type": "error"
    },
    {
      "inputs": [
        {
          "internalType": "address",
          "name": "caller",
          "type": "address"
        }
      ],
      "name": "CallerIsNotOwner",
      "type": "error"
    },
    {
      "inputs": [
        {
          "internalType": "address",
          "name": "caller",
          "type": "address"
        }
      ],
      "name": "CallerIsNotSelf",
      "type": "error"
    },
    {
      "inputs": [],
      "name": "DelegateCallsOnly",
      "type": "error"
    },
    {
      "inputs": [],
      "name": "EntryPointCannotBeZero",
      "type": "error"
    },
    {
      "inputs": [],
      "name": "HandlerCannotBeZero",
      "type": "error"
    },
    {
      "inputs": [
        {
          "internalType": "address",
          "name": "implementationAddress",
          "type": "address"
        }
      ],
      "name": "InvalidImplementation",
      "type": "error"
    },
    {
      "inputs": [
        {
          "internalType": "address",
          "name": "caller",
          "type": "address"
        }
      ],
      "name": "MixedAuthFail",
      "type": "error"
    },
    {
      "inputs": [
        {
          "internalType": "address",
          "name": "module",
          "type": "address"
        }
      ],
      "name": "ModuleAlreadyEnabled",
      "type": "error"
    },
    {
      "inputs": [
        {
          "internalType": "address",
          "name": "expectedModule",
          "type": "address"
        },
        {
          "internalType": "address",
          "name": "returnedModule",
          "type": "address"
        },
        {
          "internalType": "address",
          "name": "prevModule",
          "type": "address"
        }
      ],
      "name": "ModuleAndPrevModuleMismatch",
      "type": "error"
    },
    {
      "inputs": [
        {
          "internalType": "address",
          "name": "module",
          "type": "address"
        }
      ],
      "name": "ModuleCannotBeZeroOrSentinel",
      "type": "error"
    },
    {
      "inputs": [
        {
          "internalType": "address",
          "name": "module",
          "type": "address"
        }
      ],
      "name": "ModuleNotEnabled",
      "type": "error"
    },
    {
      "inputs": [],
      "name": "ModulesAlreadyInitialized",
      "type": "error"
    },
    {
      "inputs": [],
      "name": "ModulesSetupExecutionFailed",
      "type": "error"
    },
    {
      "inputs": [],
      "name": "OwnerCanNotBeSelf",
      "type": "error"
    },
    {
      "inputs": [],
      "name": "OwnerCannotBeZero",
      "type": "error"
    },
    {
      "inputs": [],
      "name": "OwnerProvidedIsSame",
      "type": "error"
    },
    {
      "inputs": [],
      "name": "TransferToZeroAddressAttempt",
      "type": "error"
    },
    {
      "inputs": [
        {
          "internalType": "uint256",
          "name": "destLength",
          "type": "uint256"
        },
        {
          "internalType": "uint256",
          "name": "valueLength",
          "type": "uint256"
        },
        {
          "internalType": "uint256",
          "name": "funcLength",
          "type": "uint256"
        },
        {
          "internalType": "uint256",
          "name": "operationLength",
          "type": "uint256"
        }
      ],
      "name": "WrongBatchProvided",
      "type": "error"
    },
    {
      "inputs": [
        {
          "internalType": "bytes",
          "name": "contractSignature",
          "type": "bytes"
        }
      ],
      "name": "WrongContractSignature",
      "type": "error"
    },
    {
      "inputs": [
        {
          "internalType": "uint256",
          "name": "uintS",
          "type": "uint256"
        },
        {
          "internalType": "uint256",
          "name": "contractSignatureLength",
          "type": "uint256"
        },
        {
          "internalType": "uint256",
          "name": "signatureLength",
          "type": "uint256"
        }
      ],
      "name": "WrongContractSignatureFormat",
      "type": "error"
    },
    {
      "inputs": [
        {
          "internalType": "address",
          "name": "moduleAddressProvided",
          "type": "address"
        }
      ],
      "name": "WrongValidationModule",
      "type": "error"
    },
    {
      "anonymous": false,
      "inputs": [
        {
          "indexed": true,
          "internalType": "address",
          "name": "previousHandler",
          "type": "address"
        },
        {
          "indexed": true,
          "internalType": "address",
          "name": "handler",
          "type": "address"
        }
      ],
      "name": "ChangedFallbackHandler",
      "type": "event"
    },
    {
      "anonymous": false,
      "inputs": [
        {
          "indexed": false,
          "internalType": "address",
          "name": "module",
          "type": "address"
        }
      ],
      "name": "DisabledModule",
      "type": "event"
    },
    {
      "anonymous": false,
      "inputs": [
        {
          "indexed": false,
          "internalType": "address",
          "name": "module",
          "type": "address"
        }
      ],
      "name": "EnabledModule",
      "type": "event"
    },
    {
      "anonymous": false,
      "inputs": [
        {
          "indexed": true,
          "internalType": "address",
          "name": "to",
          "type": "address"
        },
        {
          "indexed": true,
          "internalType": "uint256",
          "name": "value",
          "type": "uint256"
        },
        {
          "indexed": true,
          "internalType": "bytes",
          "name": "data",
          "type": "bytes"
        },
        {
          "indexed": false,
          "internalType": "enum Enum.Operation",
          "name": "operation",
          "type": "uint8"
        },
        {
          "indexed": false,
          "internalType": "uint256",
          "name": "txGas",
          "type": "uint256"
        }
      ],
      "name": "ExecutionFailure",
      "type": "event"
    },
    {
      "anonymous": false,
      "inputs": [
        {
          "indexed": true,
          "internalType": "address",
          "name": "module",
          "type": "address"
        }
      ],
      "name": "ExecutionFromModuleFailure",
      "type": "event"
    },
    {
      "anonymous": false,
      "inputs": [
        {
          "indexed": true,
          "internalType": "address",
          "name": "module",
          "type": "address"
        }
      ],
      "name": "ExecutionFromModuleSuccess",
      "type": "event"
    },
    {
      "anonymous": false,
      "inputs": [
        {
          "indexed": true,
          "internalType": "address",
          "name": "to",
          "type": "address"
        },
        {
          "indexed": true,
          "internalType": "uint256",
          "name": "value",
          "type": "uint256"
        },
        {
          "indexed": true,
          "internalType": "bytes",
          "name": "data",
          "type": "bytes"
        },
        {
          "indexed": false,
          "internalType": "enum Enum.Operation",
          "name": "operation",
          "type": "uint8"
        },
        {
          "indexed": false,
          "internalType": "uint256",
          "name": "txGas",
          "type": "uint256"
        }
      ],
      "name": "ExecutionSuccess",
      "type": "event"
    },
    {
      "anonymous": false,
      "inputs": [
        {
          "indexed": true,
          "internalType": "address",
          "name": "oldImplementation",
          "type": "address"
        },
        {
          "indexed": true,
          "internalType": "address",
          "name": "newImplementation",
          "type": "address"
        }
      ],
      "name": "ImplementationUpdated",
      "type": "event"
    },
    {
      "anonymous": false,
      "inputs": [
        {
          "indexed": false,
          "internalType": "address",
          "name": "module",
          "type": "address"
        },
        {
          "indexed": false,
          "internalType": "address",
          "name": "to",
          "type": "address"
        },
        {
          "indexed": false,
          "internalType": "uint256",
          "name": "value",
          "type": "uint256"
        },
        {
          "indexed": false,
          "internalType": "bytes",
          "name": "data",
          "type": "bytes"
        },
        {
          "indexed": false,
          "internalType": "enum Enum.Operation",
          "name": "operation",
          "type": "uint8"
        }
      ],
      "name": "ModuleTransaction",
      "type": "event"
    },
    {
      "anonymous": false,
      "inputs": [
        {
          "indexed": true,
          "internalType": "address",
          "name": "sender",
          "type": "address"
        },
        {
          "indexed": true,
          "internalType": "uint256",
          "name": "value",
          "type": "uint256"
        }
      ],
      "name": "SmartAccountReceivedNativeToken",
      "type": "event"
    },
    {
      "stateMutability": "nonpayable",
      "type": "fallback"
    },
    {
      "inputs": [],
      "name": "VERSION",
      "outputs": [
        {
          "internalType": "string",
          "name": "",
          "type": "string"
        }
      ],
      "stateMutability": "view",
      "type": "function"
    },
    {
      "inputs": [],
      "name": "addDeposit",
      "outputs": [],
      "stateMutability": "payable",
      "type": "function"
    },
    {
      "inputs": [
        {
          "internalType": "address",
          "name": "prevModule",
          "type": "address"
        },
        {
          "internalType": "address",
          "name": "module",
          "type": "address"
        }
      ],
      "name": "disableModule",
      "outputs": [],
      "stateMutability": "nonpayable",
      "type": "function"
    },
    {
      "inputs": [
        {
          "internalType": "address",
          "name": "module",
          "type": "address"
        }
      ],
      "name": "enableModule",
      "outputs": [],
      "stateMutability": "nonpayable",
      "type": "function"
    },
    {
      "inputs": [],
      "name": "entryPoint",
      "outputs": [
        {
          "internalType": "contract IEntryPoint",
          "name": "",
          "type": "address"
        }
      ],
      "stateMutability": "view",
      "type": "function"
    },
    {
      "inputs": [
        {
          "internalType": "address[]",
          "name": "to",
          "type": "address[]"
        },
        {
          "internalType": "uint256[]",
          "name": "value",
          "type": "uint256[]"
        },
        {
          "internalType": "bytes[]",
          "name": "data",
          "type": "bytes[]"
        },
        {
          "internalType": "enum Enum.Operation[]",
          "name": "operations",
          "type": "uint8[]"
        }
      ],
      "name": "execBatchTransactionFromModule",
      "outputs": [
        {
          "internalType": "bool",
          "name": "success",
          "type": "bool"
        }
      ],
      "stateMutability": "nonpayable",
      "type": "function"
    },
    {
      "inputs": [
        {
          "internalType": "address",
          "name": "to",
          "type": "address"
        },
        {
          "internalType": "uint256",
          "name": "value",
          "type": "uint256"
        },
        {
          "internalType": "bytes",
          "name": "data",
          "type": "bytes"
        },
        {
          "internalType": "enum Enum.Operation",
          "name": "operation",
          "type": "uint8"
        },
        {
          "internalType": "uint256",
          "name": "txGas",
          "type": "uint256"
        }
      ],
      "name": "execTransactionFromModule",
      "outputs": [
        {
          "internalType": "bool",
          "name": "success",
          "type": "bool"
        }
      ],
      "stateMutability": "nonpayable",
      "type": "function"
    },
    {
      "inputs": [
        {
          "internalType": "address",
          "name": "to",
          "type": "address"
        },
        {
          "internalType": "uint256",
          "name": "value",
          "type": "uint256"
        },
        {
          "internalType": "bytes",
          "name": "data",
          "type": "bytes"
        },
        {
          "internalType": "enum Enum.Operation",
          "name": "operation",
          "type": "uint8"
        }
      ],
      "name": "execTransactionFromModule",
      "outputs": [
        {
          "internalType": "bool",
          "name": "",
          "type": "bool"
        }
      ],
      "stateMutability": "nonpayable",
      "type": "function"
    },
    {
      "inputs": [
        {
          "internalType": "address",
          "name": "to",
          "type": "address"
        },
        {
          "internalType": "uint256",
          "name": "value",
          "type": "uint256"
        },
        {
          "internalType": "bytes",
          "name": "data",
          "type": "bytes"
        },
        {
          "internalType": "enum Enum.Operation",
          "name": "operation",
          "type": "uint8"
        }
      ],
      "name": "execTransactionFromModuleReturnData",
      "outputs": [
        {
          "internalType": "bool",
          "name": "success",
          "type": "bool"
        },
        {
          "internalType": "bytes",
          "name": "returnData",
          "type": "bytes"
        }
      ],
      "stateMutability": "nonpayable",
      "type": "function"
    },
    {
      "inputs": [
        {
          "internalType": "address",
          "name": "dest",
          "type": "address"
        },
        {
          "internalType": "uint256",
          "name": "value",
          "type": "uint256"
        },
        {
          "internalType": "bytes",
          "name": "func",
          "type": "bytes"
        }
      ],
      "name": "execute",
      "outputs": [],
      "stateMutability": "nonpayable",
      "type": "function"
    },
    {
      "inputs": [
        {
          "internalType": "address[]",
          "name": "dest",
          "type": "address[]"
        },
        {
          "internalType": "uint256[]",
          "name": "value",
          "type": "uint256[]"
        },
        {
          "internalType": "bytes[]",
          "name": "func",
          "type": "bytes[]"
        }
      ],
      "name": "executeBatch",
      "outputs": [],
      "stateMutability": "nonpayable",
      "type": "function"
    },
    {
      "inputs": [
        {
          "internalType": "address[]",
          "name": "dest",
          "type": "address[]"
        },
        {
          "internalType": "uint256[]",
          "name": "value",
          "type": "uint256[]"
        },
        {
          "internalType": "bytes[]",
          "name": "func",
          "type": "bytes[]"
        }
      ],
      "name": "executeBatch_y6U",
      "outputs": [],
      "stateMutability": "nonpayable",
      "type": "function"
    },
    {
      "inputs": [
        {
          "internalType": "address",
          "name": "dest",
          "type": "address"
        },
        {
          "internalType": "uint256",
          "name": "value",
          "type": "uint256"
        },
        {
          "internalType": "bytes",
          "name": "func",
          "type": "bytes"
        }
      ],
      "name": "execute_ncC",
      "outputs": [],
      "stateMutability": "nonpayable",
      "type": "function"
    },
    {
      "inputs": [],
      "name": "getDeposit",
      "outputs": [
        {
          "internalType": "uint256",
          "name": "",
          "type": "uint256"
        }
      ],
      "stateMutability": "view",
      "type": "function"
    },
    {
      "inputs": [],
      "name": "getFallbackHandler",
      "outputs": [
        {
          "internalType": "address",
          "name": "_handler",
          "type": "address"
        }
      ],
      "stateMutability": "view",
      "type": "function"
    },
    {
      "inputs": [],
      "name": "getImplementation",
      "outputs": [
        {
          "internalType": "address",
          "name": "_implementation",
          "type": "address"
        }
      ],
      "stateMutability": "view",
      "type": "function"
    },
    {
      "inputs": [
        {
          "internalType": "address",
          "name": "start",
          "type": "address"
        },
        {
          "internalType": "uint256",
          "name": "pageSize",
          "type": "uint256"
        }
      ],
      "name": "getModulesPaginated",
      "outputs": [
        {
          "internalType": "address[]",
          "name": "array",
          "type": "address[]"
        },
        {
          "internalType": "address",
          "name": "next",
          "type": "address"
        }
      ],
      "stateMutability": "view",
      "type": "function"
    },
    {
      "inputs": [
        {
          "internalType": "address",
          "name": "handler",
          "type": "address"
        },
        {
          "internalType": "address",
          "name": "moduleSetupContract",
          "type": "address"
        },
        {
          "internalType": "bytes",
          "name": "moduleSetupData",
          "type": "bytes"
        }
      ],
      "name": "init",
      "outputs": [
        {
          "internalType": "address",
          "name": "",
          "type": "address"
        }
      ],
      "stateMutability": "nonpayable",
      "type": "function"
    },
    {
      "inputs": [
        {
          "internalType": "address",
          "name": "module",
          "type": "address"
        }
      ],
      "name": "isModuleEnabled",
      "outputs": [
        {
          "internalType": "bool",
          "name": "",
          "type": "bool"
        }
      ],
      "stateMutability": "view",
      "type": "function"
    },
    {
      "inputs": [
        {
          "internalType": "bytes32",
          "name": "dataHash",
          "type": "bytes32"
        },
        {
          "internalType": "bytes",
          "name": "signature",
          "type": "bytes"
        }
      ],
      "name": "isValidSignature",
      "outputs": [
        {
          "internalType": "bytes4",
          "name": "",
          "type": "bytes4"
        }
      ],
      "stateMutability": "view",
      "type": "function"
    },
    {
      "inputs": [
        {
          "internalType": "uint192",
          "name": "_key",
          "type": "uint192"
        }
      ],
      "name": "nonce",
      "outputs": [
        {
          "internalType": "uint256",
          "name": "",
          "type": "uint256"
        }
      ],
      "stateMutability": "view",
      "type": "function"
    },
    {
      "inputs": [
        {
          "internalType": "uint256",
          "name": "",
          "type": "uint256"
        }
      ],
      "name": "noncesDeprecated",
      "outputs": [
        {
          "internalType": "uint256",
          "name": "",
          "type": "uint256"
        }
      ],
      "stateMutability": "view",
      "type": "function"
    },
    {
      "inputs": [],
      "name": "ownerDeprecated",
      "outputs": [
        {
          "internalType": "address",
          "name": "",
          "type": "address"
        }
      ],
      "stateMutability": "view",
      "type": "function"
    },
    {
      "inputs": [
        {
          "internalType": "address",
          "name": "handler",
          "type": "address"
        }
      ],
      "name": "setFallbackHandler",
      "outputs": [],
      "stateMutability": "nonpayable",
      "type": "function"
    },
    {
      "inputs": [
        {
          "internalType": "address",
          "name": "setupContract",
          "type": "address"
        },
        {
          "internalType": "bytes",
          "name": "setupData",
          "type": "bytes"
        }
      ],
      "name": "setupAndEnableModule",
      "outputs": [
        {
          "internalType": "address",
          "name": "",
          "type": "address"
        }
      ],
      "stateMutability": "nonpayable",
      "type": "function"
    },
    {
      "inputs": [
        {
          "internalType": "bytes4",
          "name": "_interfaceId",
          "type": "bytes4"
        }
      ],
      "name": "supportsInterface",
      "outputs": [
        {
          "internalType": "bool",
          "name": "",
          "type": "bool"
        }
      ],
      "stateMutability": "view",
      "type": "function"
    },
    {
      "inputs": [
        {
          "internalType": "address",
          "name": "_implementation",
          "type": "address"
        }
      ],
      "name": "updateImplementation",
      "outputs": [],
      "stateMutability": "nonpayable",
      "type": "function"
    },
    {
      "inputs": [
        {
          "components": [
            {
              "internalType": "address",
              "name": "sender",
              "type": "address"
            },
            {
              "internalType": "uint256",
              "name": "nonce",
              "type": "uint256"
            },
            {
              "internalType": "bytes",
              "name": "initCode",
              "type": "bytes"
            },
            {
              "internalType": "bytes",
              "name": "callData",
              "type": "bytes"
            },
            {
              "internalType": "uint256",
              "name": "callGasLimit",
              "type": "uint256"
            },
            {
              "internalType": "uint256",
              "name": "verificationGasLimit",
              "type": "uint256"
            },
            {
              "internalType": "uint256",
              "name": "preVerificationGas",
              "type": "uint256"
            },
            {
              "internalType": "uint256",
              "name": "maxFeePerGas",
              "type": "uint256"
            },
            {
              "internalType": "uint256",
              "name": "maxPriorityFeePerGas",
              "type": "uint256"
            },
            {
              "internalType": "bytes",
              "name": "paymasterAndData",
              "type": "bytes"
            },
            {
              "internalType": "bytes",
              "name": "signature",
              "type": "bytes"
            }
          ],
          "internalType": "struct UserOperation",
          "name": "userOp",
          "type": "tuple"
        },
        {
          "internalType": "bytes32",
          "name": "userOpHash",
          "type": "bytes32"
        },
        {
          "internalType": "uint256",
          "name": "missingAccountFunds",
          "type": "uint256"
        }
      ],
      "name": "validateUserOp",
      "outputs": [
        {
          "internalType": "uint256",
          "name": "validationData",
          "type": "uint256"
        }
      ],
      "stateMutability": "nonpayable",
      "type": "function"
    },
    {
      "inputs": [
        {
          "internalType": "address payable",
          "name": "withdrawAddress",
          "type": "address"
        },
        {
          "internalType": "uint256",
          "name": "amount",
          "type": "uint256"
        }
      ],
      "name": "withdrawDepositTo",
      "outputs": [],
      "stateMutability": "payable",
      "type": "function"
    },
    {
      "stateMutability": "payable",
      "type": "receive"
    }
  ],
  "bytecode": "0x60c0346100fc57601f61213e38819003918201601f19168301916001600160401b03831184841017610101578084926020946040528339810103126100fc57516001600160a01b0381168082036100fc573060a052156100ea57608052600160008181526020527fada5013122d395ba3c54772283fb069b10426056ef8ca54750cb9bb552a59e7d80546001600160a01b03191690911790556040516120269081610118823960805181818161096f01528181610b6201528181610c0301528181610f2101528181610f740152818161119e0152818161193b0152611996015260a051816114dd0152f35b60405163091748f960e21b8152600490fd5b600080fd5b634e487b7160e01b600052604160045260246000fdfe60806040526004361015610030575b36156100285734610023576100216119d6565b005b600080fd5b6100216114d3565b60003560e01c8061189a146101b357806146801461021657806301ffc9a71461025e578063025b22bc146102555780631626ba7e1461024c57806321632045146102435780632d9ad53d1461023a578063378dfd8e146102315780633a871cdd14610228578063468721a71461021f57806347e1da2a146102165780634a58db191461020d5780634d44560d146102045780635229073f146101fb5780635305dd27146101f2578063610b5925146101e95780636424e9fe146101e0578063856dfd99146101d7578063aaf10f42146101ce578063acfdf503146101c5578063b0d691fe146101bc578063b61d27f6146101b3578063c399ec88146101aa578063cc2f8452146101a1578063d86f2b3c14610198578063e009cfde1461018f578063f08a032314610186578063f33623b11461017d5763ffa1ad740361000e57610178611439565b61000e565b5061017861140c565b506101786113de565b5061017861120c565b5061017861113a565b50610178611038565b50610178610f45565b506101786102b3565b50610178610f00565b50610178610e5d565b50610178610e36565b50610178610def565b50610178610dc7565b50610178610d99565b50610178610d2d565b50610178610cab565b50610178610bd4565b50610178610b4a565b50610178610342565b50610178610afc565b50610178610929565b506101786107c8565b5061017861076a565b506101786106ab565b5061017861064f565b5061017861049d565b50610178610461565b6001600160a01b0381160361002357565b359061028382610267565b565b9181601f840112156100235782359167ffffffffffffffff8311610023576020838186019501011161002357565b5034610023576060366003190112610023576004356102d181610267565b6044359067ffffffffffffffff8211610023576103076102f8610021933690600401610285565b61030061198c565b36916105fa565b906024359061190d565b9181601f840112156100235782359167ffffffffffffffff8311610023576020808501948460051b01011161002357565b50346100235760603660031901126100235767ffffffffffffffff60043581811161002357610375903690600401610311565b906024358381116100235761038e903690600401610311565b93604435908111610023576103a7903690600401610311565b926103b061198c565b84158015610445575b801561043b575b61040f5760005b8581106103d057005b806104096103e96103e46001948a87611745565b611763565b6103f4838b89611745565b35610403610300858b8a61176d565b9161190d565b016103c7565b5050506084926040519263470c355760e01b845260048401526024830152604482015260006064820152fd5b50838614156103c0565b50858514156103b9565b6001600160e01b031981160361002357565b50346100235760203660031901126100235760206004356104818161044f565b6040516001600160e01b03199091166301ffc9a760e01b148152f35b5034610023576020366003190112610023576004356104bb81610267565b6104c3611931565b6001600160a01b0380821691821561053057803b15610509573054903055167faa3f731066a578e5f39b4215468d826cdd15373cbc0dfc9cb9bdc649718ef7da600080a3005b604051630c76093760e01b81526001600160a01b03919091166004820152602490fd5b0390fd5b60405162461bcd60e51b815260206004820152601660248201527f416464726573732063616e6e6f74206265207a65726f000000000000000000006044820152606490fd5b50634e487b7160e01b600052604160045260246000fd5b67ffffffffffffffff81116105a057604052565b6105a8610575565b604052565b90601f8019910116810190811067ffffffffffffffff8211176105a057604052565b60209067ffffffffffffffff81116105ed575b601f01601f19160190565b6105f5610575565b6105e2565b929192610606826105cf565b9161061460405193846105ad565b829481845281830111610023578281602093846000960137010152565b9080601f830112156100235781602061064c933591016105fa565b90565b50346100235760403660031901126100235760243567ffffffffffffffff81116100235761068e6106866020923690600401610631565b600435611834565b6040516001600160e01b03199091168152f35b6002111561002357565b50346100235760a0366003190112610023576004356106c981610267565b60443567ffffffffffffffff8111610023576106e9903690600401610631565b90606435906106f7826106a1565b6084359160013314801561074b575b61073357602093610723938061072d57505a925b60243590611b5a565b6040519015158152f35b9261071a565b6040516321ac7c5f60e01b8152336004820152602490fd5b503360005260006020526001600160a01b036040600020541615610706565b503461002357602036600319011261002357602060043561078a81610267565b6001600160a01b0380911690816001141591826107ae575b50506040519015158152f35b9091506000526000825260406000205416151538806107a2565b5034610023576060366003190112610023576004356107e681610267565b602435906107f382610267565b60443567ffffffffffffffff811161002357610813903690600401610285565b91909260009360018552846020526001600160a01b0393604093858588205416158015906108fd575b6108ed5791610852916103006108589594611a24565b90611f7a565b918216801580156108e3575b6108cd578282856108b1936108c997528060205261089182822060016001600160a01b0319825416179055565b6001815220906001600160a01b03166001600160a01b0319825416179055565b516001600160a01b0390911681529081906020820190565b0390f35b602491519063cadb248f60e01b82526004820152fd5b5060018114610864565b845162dc149f60e41b8152600490fd5b50857f6c9a6c4a39284e37ed1cf53d337577d14212a4870fb976a4366c693b939918d45416151561083c565b503461002357600319606036820112610023576004359067ffffffffffffffff82116100235761016082600401918336030112610023576000906001600160a01b0392837f0000000000000000000000000000000000000000000000000000000000000000163303610a9b576109af6109a76101448693018461153d565b810190611570565b905016926109e06109d3856001600160a01b03166000526000602052604060002090565b546001600160a01b031690565b1615610a7a576020610a116108c9948493604051948580948193637ff9adb960e11b835260243590600484016115fa565b03925af1918215610a6d575b91610a3f575b50610a2f6044356116f1565b6040519081529081906020820190565b610a60915060203d8111610a66575b610a5881836105ad565b8101906114b7565b38610a23565b503d610a4e565b610a756114c6565b610a1d565b6040516326cc3fab60e21b81526001600160a01b0384166004820152602490fd5b604051635dac3db760e11b8152336004820152602490fd5b608060031982011261002357600435610acb81610267565b91602435916044359067ffffffffffffffff821161002357610aef91600401610631565b9060643561064c816106a1565b503461002357610b0b36610ab3565b600193919333148015610b2b575b61073357602093610723935a93611b5a565b503360005260006020526001600160a01b036040600020541615610b19565b50600080600319360112610bd1576001600160a01b037f00000000000000000000000000000000000000000000000000000000000000001681813b15610bd15760405163b760faf960e01b8152306004820152918290602490829034905af18015610bc4575b610bb8575080f35b610bc19061058c565b80f35b610bcc6114c6565b610bb0565b80fd5b5060006040366003190112610bd157600435610bef81610267565b610bf7611931565b816001600160a01b03807f00000000000000000000000000000000000000000000000000000000000000001692833b15610c5f5760449083604051958694859363040b850f60e31b855216600484015260243560248401525af18015610bc457610bb8575080f35b8280fd5b60005b838110610c765750506000910152565b8181015183820152602001610c66565b90602091610c9f81518092818552858086019101610c63565b601f01601f1916010190565b503461002357610cba36610ab3565b90600193929333148015610d0e575b61073357610cd8935a93611b5a565b6040519060203d8301016040523d82523d6000602084013e6108c960405192839215158352604060208401526040830190610c86565b503360005260006020526001600160a01b036040600020541615610cc9565b503461002357604036600319011261002357600435610d4b81610267565b60243567ffffffffffffffff811161002357602091610d71610d7f923690600401610631565b90610d7a611931565b611f7a565b610d8881611d68565b6001600160a01b0360405191168152f35b503461002357602036600319011261002357610021600435610dba81610267565b610dc2611931565b611d68565b50346100235760003660031901126100235760206001600160a01b0360315416604051908152f35b50346100235760003660031901126100235760207f6c9a6c4a39284e37ed1cf53d337577d14212a4870fb976a4366c693b939918d4546001600160a01b0360405191168152f35b503461002357600036600319011261002357602030546001600160a01b0360405191168152f35b50346100235760803660031901126100235767ffffffffffffffff60043581811161002357610e90903690600401610311565b60249291923582811161002357610eab903690600401610311565b60449491943584811161002357610ec6903690600401610311565b91606435958611610023576108c996610ee6610eee973690600401610311565b969095611c22565b60405190151581529081906020820190565b50346100235760003660031901126100235760206040516001600160a01b037f0000000000000000000000000000000000000000000000000000000000000000168152f35b5034610023576000366003190112610023576040516370a0823160e01b815230600482015260209081816024817f00000000000000000000000000000000000000000000000000000000000000006001600160a01b03165afa908115610fd4575b600091610fb7575b50604051908152f35b610fce9150823d8111610a6657610a5881836105ad565b38610fae565b610fdc6114c6565b610fa6565b90929192604082016040835281518091526060830160208093019160005b8482821061101b575050506001600160a01b0391509416910152565b84516001600160a01b031684529384019390920191600101610fff565b50346100235760403660031901126100235760043561105681610267565b60243561106281611a96565b61106f60405191826105ad565b818152601f1961107e83611a96565b013660208301376110a76109d36000946001600160a01b03166000526000602052604060002090565b6001600160a01b038116801515908161112e575b5080611125575b15611112576111066109d3826110ed61110c946110df8988611ab7565b906001600160a01b03169052565b6001600160a01b03166000526000602052604060002090565b93611ad9565b926110a7565b908381526108c960405192839283610fe1565b508284106110c2565b600191501415386110bb565b50346100235760203660031901126100235760043577ffffffffffffffffffffffffffffffffffffffffffffffff8116809103610023576108c99060405190631aab3f0d60e11b825230600483015260248201526020816044816001600160a01b037f0000000000000000000000000000000000000000000000000000000000000000165afa9081156111ff575b6000916111e1575b506040519081529081906020820190565b6111f9915060203d8111610a6657610a5881836105ad565b386111d0565b6112076114c6565b6111c8565b50346100235760403660031901126100235760043561122a81610267565b60243561123681610267565b61123e611931565b6001600160a01b038116801580156113d4575b6113b3576112846112786109d3856001600160a01b03166000526000602052604060002090565b6001600160a01b031690565b03611359578061130a7faab4fa2b463f581b2b32cb3b7e3b704b9ce37cc209b5fb4d77e593ace4054276936112ef6112d56109d3611354966001600160a01b03166000526000602052604060002090565b916001600160a01b03166000526000602052604060002090565b906001600160a01b03166001600160a01b0319825416179055565b61133a61132a826001600160a01b03166000526000602052604060002090565b6001600160a01b03198154169055565b6040516001600160a01b0390911681529081906020820190565b0390a1005b61052c61137c6109d3846001600160a01b03166000526000602052604060002090565b604051633103525b60e21b81526001600160a01b039384166004820152908316602482015292909116604483015281906064820190565b60405163cadb248f60e01b81526001600160a01b0383166004820152602490fd5b5060018114611251565b5034610023576020366003190112610023576100216004356113ff81610267565b611407611931565b611a24565b50346100235760203660031901126100235760043560005260326020526020604060002054604051908152f35b5034610023576000366003190112610023576108c96040516040810181811067ffffffffffffffff8211176114aa575b604052600581527f322e302e300000000000000000000000000000000000000000000000000000006020820152604051918291602083526020830190610c86565b6114b2610575565b611469565b90816020910312610023575190565b506040513d6000823e3d90fd5b6001600160a01b037f000000000000000000000000000000000000000000000000000000000000000016301461152b5734337ed05ab44e279ac59e855cb75dc2ae23b200ad994797b6f1f028f96a46ecce02600080a3565b604051633c97166560e21b8152600490fd5b903590601e1981360301821215610023570180359067ffffffffffffffff82116100235760200191813603831361002357565b919060408382031261002357823567ffffffffffffffff81116100235760209161159b918501610631565b92013561064c81610267565b9035601e198236030181121561002357016020813591019167ffffffffffffffff821161002357813603831361002357565b908060209392818452848401376000828201840152601f01601f1916010190565b9291906116ec611657602092604087526116276040880161161a83610278565b6001600160a01b03169052565b8381013560608801526116dc61164060408301836115a7565b9390610160948560808c01526101a08b01916115d9565b916116d361167f61166b60608401846115a7565b603f198d8803810160a08f015296916115d9565b608083013560c08c015260a083013560e08c01528a6101009660c0850135888301526116c361012060e087013581850152610140998701358a8501528601866115a7565b92909188828603019101526115d9565b938101906115a7565b91888403016101808901526115d9565b930152565b806116f95750565b600080808093338219f1503d15610283573d611714816105cf565b9061172260405192836105ad565b8152600060203d92013e565b50634e487b7160e01b600052603260045260246000fd5b9190811015611756575b60051b0190565b61175e61172e565b61174f565b3561064c81610267565b90916117869281101561178a575b60051b81019061153d565b9091565b61179261172e565b61177b565b919060408382031261002357825167ffffffffffffffff81116100235783019080601f83011215610023578151916117ce836105cf565b916117dc60405193846105ad565b83835260208483010111610023576020926117fc91848085019101610c63565b92015161064c81610267565b90816020910312610023575161064c8161044f565b60409061064c939281528160208201520190610c86565b906118489060208082518301019101611797565b90916001600160a01b03809216916118766109d3846001600160a01b03166000526000602052604060002090565b16156118ec57916020916118a093604051809581948293630b135d3f60e11b84526004840161181d565b03915afa9081156118df575b6000916118b7575090565b61064c915060203d81116118d8575b6118d081836105ad565b810190611808565b503d6118c6565b6118e76114c6565b6118ac565b6040516326cc3fab60e21b81526001600160a01b0383166004820152602490fd5b916000928392602083519301915af1604051903d6000833e1561192d5750565b3d90fd5b6001600160a01b037f00000000000000000000000000000000000000000000000000000000000000001633141580611982575b61196a57565b604051634776242160e01b8152336004820152602490fd5b5030331415611964565b6001600160a01b037f00000000000000000000000000000000000000000000000000000000000000001633036119be57565b60405163e6fce6a560e01b8152336004820152602490fd5b507f6c9a6c4a39284e37ed1cf53d337577d14212a4870fb976a4366c693b939918d4548015610021576000808092368280373360601b3652818060143601925af13d82803e1561192d573d90f35b6001600160a01b03808216918215611a84577f6c9a6c4a39284e37ed1cf53d337577d14212a4870fb976a4366c693b939918d49081549155167f06be9a1bea257286cf2afa8205ed494ca9d6a4b41aa58d04238deebada20fb0c600080a3565b60405163dd449f5f60e01b8152600490fd5b60209067ffffffffffffffff8111611aaf5760051b0190565b61175e610575565b6020918151811015611acc575b60051b010190565b611ad461172e565b611ac4565b6000198114611ae85760010190565b634e487b7160e01b600052601160045260246000fd5b611b1690602060405192828480945193849201610c63565b810103902090565b906002821015611b2b5752565b634e487b7160e01b600052602160045260246000fd5b60209093929193611b56816040810196611b1e565b0152565b9493929091946002821015611b2b5760018203611c05576000808751602089018488f4955b8615611bcf577f81d12fffced46c214dfae8ab8fa0b9f7b69f70c9d500e33f612f2105deb261ee91611bca611bbb6001600160a01b0393611afe565b96604051938493169583611b41565b0390a4565b7f3ddd038f78c876172d5dbfd730b14c9f8692dfa197ef104eaac6df3f85a0874a91611bca611bbb6001600160a01b0393611afe565b600080875160208901868589f195611b7f565b3561064c816106a1565b9497969391929795909560009887158015611d5e575b8015611d54575b8015611d4a575b611d1b576001978833148015611ceb575b6107335797969594939291906000985b808a10611c7a5750505050505050505050565b9091929394959697899b50611cdb888888611cd589869f8f81611cc0818e611cb98f968f97611cb36103e483611ccd9b611cc89b611745565b9c611745565b359861176d565b989094611745565b611c18565b9436916105fa565b91611eab565b9b01989796959493929190611c67565b506001600160a01b03611d146109d3336001600160a01b03166000526000602052604060002090565b1615611c57565b60405163470c355760e01b81526004810189905260248101919091526044810182905260648101869052608490fd5b5085821415611c46565b5081811415611c3f565b5080881415611c38565b6001600160a01b0381168015908115611ea0575b50611e7d57611da46112786109d3836001600160a01b03166000526000602052604060002090565b611e5a57600160009081526020527fecdf3a3effea5783a3c4c2140e677577666428d44ed9d474a0b3a4c9943f844090611e5590611e21611e047fada5013122d395ba3c54772283fb069b10426056ef8ca54750cb9bb552a59e7d6109d3565b6112ef836001600160a01b03166000526000602052604060002090565b6001600090815260205261133a817fada5013122d395ba3c54772283fb069b10426056ef8ca54750cb9bb552a59e7d6112ef565b0390a1565b60405163b29d459560e01b81526001600160a01b03919091166004820152602490fd5b60405163cadb248f60e01b81526001600160a01b03919091166004820152602490fd5b600191501438611d7c565b939293611ebb5a86858585611b5a565b948515611f4e57611f23611f187f8c014e41cffd68ba64f3e7830b8b2e4ee860509d8deab25ebbcbba2f0405e2da956001600160a01b0395604051968796338852166020870152604086015260a0606086015260a0850190610c86565b916080840190611b1e565b0390a1337f6895c13664aa4f67288b25d7a21d7aaa34916e355fb9b6fae0a139a9085becb8600080a2565b50505050337facd2c8702804128fdb0db2bb49f6d127dd0181c13fd45dbfe16de0930e2bd375600080a2565b6001600160a01b03811615611fab5781600092918360208194519301915af1604051903d6000833e1561192d575190565b60405162461bcd60e51b815260206004820152601a60248201527f57726f6e67204d6f64756c6520536574757020416464726573730000000000006044820152606490fdfea26469706673582212205e35c32c65281399d0271586e25905b496a0e4ccfd6e3ff9ffae2c43380c16ac64736f6c63430008110033",
  "linkReferences": {},
  "deployedLinkReferences": {}
}